Archive member included because of file (symbol)

/Users/cnoviello/STM32Toolchain/gcc-arm-none-eabi-4_9-2015q2/bin/../lib/gcc/arm-none-eabi/4.9.3/cortex-m7/libgcc.a(_arm_addsubsf3.o)
                              ./system/src/BSP/stm32746g_discovery_lcd.o (__aeabi_i2f)
/Users/cnoviello/STM32Toolchain/gcc-arm-none-eabi-4_9-2015q2/bin/../lib/gcc/arm-none-eabi/4.9.3/cortex-m7/libgcc.a(_arm_muldivsf3.o)
                              ./system/src/BSP/stm32746g_discovery_lcd.o (__aeabi_fdiv)
/Users/cnoviello/STM32Toolchain/gcc-arm-none-eabi-4_9-2015q2/bin/../lib/gcc/arm-none-eabi/4.9.3/cortex-m7/libgcc.a(_arm_fixunssfsi.o)
                              ./system/src/BSP/stm32746g_discovery_lcd.o (__aeabi_f2uiz)
/Users/cnoviello/STM32Toolchain/gcc-arm-none-eabi-4_9-2015q2/bin/../lib/gcc/arm-none-eabi/4.9.3/cortex-m7/libgcc.a(unwind-arm.o)
                              ./system/src/newlib/_cxx.o (__aeabi_unwind_cpp_pr1)
/Users/cnoviello/STM32Toolchain/gcc-arm-none-eabi-4_9-2015q2/bin/../lib/gcc/arm-none-eabi/4.9.3/cortex-m7/libgcc.a(libunwind.o)
                              /Users/cnoviello/STM32Toolchain/gcc-arm-none-eabi-4_9-2015q2/bin/../lib/gcc/arm-none-eabi/4.9.3/cortex-m7/libgcc.a(unwind-arm.o) (restore_core_regs)
/Users/cnoviello/STM32Toolchain/gcc-arm-none-eabi-4_9-2015q2/bin/../lib/gcc/arm-none-eabi/4.9.3/cortex-m7/libgcc.a(pr-support.o)
                              /Users/cnoviello/STM32Toolchain/gcc-arm-none-eabi-4_9-2015q2/bin/../lib/gcc/arm-none-eabi/4.9.3/cortex-m7/libgcc.a(unwind-arm.o) (__gnu_unwind_execute)
/Users/cnoviello/STM32Toolchain/gcc-arm-none-eabi-4_9-2015q2/bin/../lib/gcc/arm-none-eabi/4.9.3/../../../../arm-none-eabi/lib/cortex-m7/libg_nano.a(lib_a-errno.o)
                              ./system/src/newlib/_sbrk.o (__errno)
/Users/cnoviello/STM32Toolchain/gcc-arm-none-eabi-4_9-2015q2/bin/../lib/gcc/arm-none-eabi/4.9.3/../../../../arm-none-eabi/lib/cortex-m7/libg_nano.a(lib_a-impure.o)
                              /Users/cnoviello/STM32Toolchain/gcc-arm-none-eabi-4_9-2015q2/bin/../lib/gcc/arm-none-eabi/4.9.3/../../../../arm-none-eabi/lib/cortex-m7/libg_nano.a(lib_a-errno.o) (_impure_ptr)
/Users/cnoviello/STM32Toolchain/gcc-arm-none-eabi-4_9-2015q2/bin/../lib/gcc/arm-none-eabi/4.9.3/../../../../arm-none-eabi/lib/cortex-m7/libg_nano.a(lib_a-init.o)
                              ./system/src/cmsis/startup_stm32f746xx.o (__libc_init_array)
/Users/cnoviello/STM32Toolchain/gcc-arm-none-eabi-4_9-2015q2/bin/../lib/gcc/arm-none-eabi/4.9.3/../../../../arm-none-eabi/lib/cortex-m7/libg_nano.a(lib_a-memcpy.o)
                              /Users/cnoviello/STM32Toolchain/gcc-arm-none-eabi-4_9-2015q2/bin/../lib/gcc/arm-none-eabi/4.9.3/cortex-m7/libgcc.a(unwind-arm.o) (memcpy)
/Users/cnoviello/STM32Toolchain/gcc-arm-none-eabi-4_9-2015q2/bin/../lib/gcc/arm-none-eabi/4.9.3/../../../../arm-none-eabi/lib/cortex-m7/libg_nano.a(lib_a-memset.o)
                              ./system/src/stm32f7xx/stm32f7xx_hal_sd.o (memset)
/Users/cnoviello/STM32Toolchain/gcc-arm-none-eabi-4_9-2015q2/bin/../lib/gcc/arm-none-eabi/4.9.3/../../../../arm-none-eabi/lib/cortex-m7/libg_nano.a(lib_a-strlen.o)
                              ./system/src/diag/Trace.o (strlen)
/Users/cnoviello/STM32Toolchain/gcc-arm-none-eabi-4_9-2015q2/bin/../lib/gcc/arm-none-eabi/4.9.3/../../../../arm-none-eabi/lib/cortex-m7/libg_nano.a(lib_a-vsnprintf.o)
                              ./system/src/diag/Trace.o (vsnprintf)
/Users/cnoviello/STM32Toolchain/gcc-arm-none-eabi-4_9-2015q2/bin/../lib/gcc/arm-none-eabi/4.9.3/../../../../arm-none-eabi/lib/cortex-m7/libg_nano.a(lib_a-nano-svfprintf.o)
                              /Users/cnoviello/STM32Toolchain/gcc-arm-none-eabi-4_9-2015q2/bin/../lib/gcc/arm-none-eabi/4.9.3/../../../../arm-none-eabi/lib/cortex-m7/libg_nano.a(lib_a-vsnprintf.o) (_svfprintf_r)
/Users/cnoviello/STM32Toolchain/gcc-arm-none-eabi-4_9-2015q2/bin/../lib/gcc/arm-none-eabi/4.9.3/../../../../arm-none-eabi/lib/cortex-m7/libg_nano.a(lib_a-nano-vfprintf_i.o)
                              /Users/cnoviello/STM32Toolchain/gcc-arm-none-eabi-4_9-2015q2/bin/../lib/gcc/arm-none-eabi/4.9.3/../../../../arm-none-eabi/lib/cortex-m7/libg_nano.a(lib_a-nano-svfprintf.o) (_printf_i)
/Users/cnoviello/STM32Toolchain/gcc-arm-none-eabi-4_9-2015q2/bin/../lib/gcc/arm-none-eabi/4.9.3/../../../../arm-none-eabi/lib/cortex-m7/libg_nano.a(lib_a-memchr.o)
                              /Users/cnoviello/STM32Toolchain/gcc-arm-none-eabi-4_9-2015q2/bin/../lib/gcc/arm-none-eabi/4.9.3/../../../../arm-none-eabi/lib/cortex-m7/libg_nano.a(lib_a-nano-svfprintf.o) (memchr)
/Users/cnoviello/STM32Toolchain/gcc-arm-none-eabi-4_9-2015q2/bin/../lib/gcc/arm-none-eabi/4.9.3/../../../../arm-none-eabi/lib/cortex-m7/libg_nano.a(lib_a-memmove.o)
                              /Users/cnoviello/STM32Toolchain/gcc-arm-none-eabi-4_9-2015q2/bin/../lib/gcc/arm-none-eabi/4.9.3/../../../../arm-none-eabi/lib/cortex-m7/libg_nano.a(lib_a-nano-svfprintf.o) (memmove)
/Users/cnoviello/STM32Toolchain/gcc-arm-none-eabi-4_9-2015q2/bin/../lib/gcc/arm-none-eabi/4.9.3/../../../../arm-none-eabi/lib/cortex-m7/libg_nano.a(lib_a-nano-freer.o)
                              /Users/cnoviello/STM32Toolchain/gcc-arm-none-eabi-4_9-2015q2/bin/../lib/gcc/arm-none-eabi/4.9.3/../../../../arm-none-eabi/lib/cortex-m7/libg_nano.a(lib_a-nano-svfprintf.o) (_free_r)
/Users/cnoviello/STM32Toolchain/gcc-arm-none-eabi-4_9-2015q2/bin/../lib/gcc/arm-none-eabi/4.9.3/../../../../arm-none-eabi/lib/cortex-m7/libg_nano.a(lib_a-nano-mallocr.o)
                              /Users/cnoviello/STM32Toolchain/gcc-arm-none-eabi-4_9-2015q2/bin/../lib/gcc/arm-none-eabi/4.9.3/../../../../arm-none-eabi/lib/cortex-m7/libg_nano.a(lib_a-nano-svfprintf.o) (_malloc_r)
/Users/cnoviello/STM32Toolchain/gcc-arm-none-eabi-4_9-2015q2/bin/../lib/gcc/arm-none-eabi/4.9.3/../../../../arm-none-eabi/lib/cortex-m7/libg_nano.a(lib_a-nano-reallocr.o)
                              /Users/cnoviello/STM32Toolchain/gcc-arm-none-eabi-4_9-2015q2/bin/../lib/gcc/arm-none-eabi/4.9.3/../../../../arm-none-eabi/lib/cortex-m7/libg_nano.a(lib_a-nano-svfprintf.o) (_realloc_r)
/Users/cnoviello/STM32Toolchain/gcc-arm-none-eabi-4_9-2015q2/bin/../lib/gcc/arm-none-eabi/4.9.3/../../../../arm-none-eabi/lib/cortex-m7/libg_nano.a(lib_a-sbrkr.o)
                              /Users/cnoviello/STM32Toolchain/gcc-arm-none-eabi-4_9-2015q2/bin/../lib/gcc/arm-none-eabi/4.9.3/../../../../arm-none-eabi/lib/cortex-m7/libg_nano.a(lib_a-nano-mallocr.o) (_sbrk_r)
/Users/cnoviello/STM32Toolchain/gcc-arm-none-eabi-4_9-2015q2/bin/../lib/gcc/arm-none-eabi/4.9.3/../../../../arm-none-eabi/lib/cortex-m7/libg_nano.a(lib_a-nano-msizer.o)
                              /Users/cnoviello/STM32Toolchain/gcc-arm-none-eabi-4_9-2015q2/bin/../lib/gcc/arm-none-eabi/4.9.3/../../../../arm-none-eabi/lib/cortex-m7/libg_nano.a(lib_a-nano-reallocr.o) (_malloc_usable_size_r)

Allocating common symbols
Common symbol       size              file

errno               0x4               ./system/src/newlib/_syscalls.o
EEPROMDataRead      0x2               ./system/src/BSP/stm32746g_discovery_eeprom.o
pFlash              0x1c              ./system/src/stm32f7xx/stm32f7xx_hal_flash.o
haudio_tim          0x3c              ./system/src/BSP/stm32746g_discovery_audio.o
audio_drv           0x4               ./system/src/BSP/stm32746g_discovery_audio.o
QSPIHandle          0x44              ./system/src/BSP/stm32746g_discovery_qspi.o
EEPROMDataWrite     0x1               ./system/src/BSP/stm32746g_discovery_eeprom.o
aBufferTS           0xa               ./system/include/Components/exc7200/exc7200.o
camera_drv          0x4               ./system/src/BSP/stm32746g_discovery_camera.o

Discarded input sections

 .group         0x0000000000000000        0x8 ./system/src/stm32f7xx/stm32f7xx_hal.o
 .group         0x0000000000000000        0x8 ./system/src/stm32f7xx/stm32f7xx_hal.o
 .group         0x0000000000000000        0x8 ./system/src/stm32f7xx/stm32f7xx_hal.o
 .group         0x0000000000000000        0x8 ./system/src/stm32f7xx/stm32f7xx_hal.o
 .group         0x0000000000000000        0x8 ./system/src/stm32f7xx/stm32f7xx_hal.o
 .group         0x0000000000000000        0x8 ./system/src/stm32f7xx/stm32f7xx_hal.o
 .group         0x0000000000000000        0x8 ./system/src/stm32f7xx/stm32f7xx_hal.o
 .group         0x0000000000000000        0x8 ./system/src/stm32f7xx/stm32f7xx_hal.o
 .group         0x0000000000000000        0x8 ./system/src/stm32f7xx/stm32f7xx_hal.o
 .group         0x0000000000000000        0x8 ./system/src/stm32f7xx/stm32f7xx_hal.o
 .group         0x0000000000000000        0x8 ./system/src/stm32f7xx/stm32f7xx_hal.o
 .group         0x0000000000000000        0x8 ./system/src/stm32f7xx/stm32f7xx_hal.o
 .group         0x0000000000000000        0x8 ./system/src/stm32f7xx/stm32f7xx_hal.o
 .group         0x0000000000000000        0x8 ./system/src/stm32f7xx/stm32f7xx_hal.o
 .group         0x0000000000000000        0x8 ./system/src/stm32f7xx/stm32f7xx_hal.o
 .group         0x0000000000000000        0x8 ./system/src/stm32f7xx/stm32f7xx_hal.o
 .group         0x0000000000000000        0x8 ./system/src/stm32f7xx/stm32f7xx_hal.o
 .group         0x0000000000000000        0x8 ./system/src/stm32f7xx/stm32f7xx_hal.o
Memory Configuration

Name             Origin             Length             Attributes
FLASH            0x0000000008000000 0x0000000000100000 xr
RAM              0x0000000020000000 0x0000000000050000 xrw
CCMRAM           0x0000000010000000 0x0000000000000000 xrw
FLASHB1          0x0000000000000000 0x0000000000000000 xr
EXTMEMB0         0x0000000000000000 0x0000000000000000 xr
EXTMEMB1         0x0000000000000000 0x0000000000000000 xr
EXTMEMB2         0x0000000000000000 0x0000000000000000 xr
EXTMEMB3         0x0000000000000000 0x0000000000000000 xr
*default*        0x0000000000000000 0xffffffffffffffff

Linker script and memory map

LOAD ./system/src/stm32f7xx/stm32f7xx_hal.o
LOAD ./system/src/stm32f7xx/stm32f7xx_hal_adc.o
LOAD ./system/src/stm32f7xx/stm32f7xx_hal_adc_ex.o
LOAD ./system/src/stm32f7xx/stm32f7xx_hal_can.o
LOAD ./system/src/stm32f7xx/stm32f7xx_hal_cec.o
LOAD ./system/src/stm32f7xx/stm32f7xx_hal_cortex.o
LOAD ./system/src/stm32f7xx/stm32f7xx_hal_crc.o
LOAD ./system/src/stm32f7xx/stm32f7xx_hal_crc_ex.o
LOAD ./system/src/stm32f7xx/stm32f7xx_hal_cryp.o
LOAD ./system/src/stm32f7xx/stm32f7xx_hal_cryp_ex.o
LOAD ./system/src/stm32f7xx/stm32f7xx_hal_dac.o
LOAD ./system/src/stm32f7xx/stm32f7xx_hal_dac_ex.o
LOAD ./system/src/stm32f7xx/stm32f7xx_hal_dcmi.o
LOAD ./system/src/stm32f7xx/stm32f7xx_hal_dcmi_ex.o
LOAD ./system/src/stm32f7xx/stm32f7xx_hal_dma.o
LOAD ./system/src/stm32f7xx/stm32f7xx_hal_dma2d.o
LOAD ./system/src/stm32f7xx/stm32f7xx_hal_dma_ex.o
LOAD ./system/src/stm32f7xx/stm32f7xx_hal_eth.o
LOAD ./system/src/stm32f7xx/stm32f7xx_hal_flash.o
LOAD ./system/src/stm32f7xx/stm32f7xx_hal_flash_ex.o
LOAD ./system/src/stm32f7xx/stm32f7xx_hal_gpio.o
LOAD ./system/src/stm32f7xx/stm32f7xx_hal_hash.o
LOAD ./system/src/stm32f7xx/stm32f7xx_hal_hash_ex.o
LOAD ./system/src/stm32f7xx/stm32f7xx_hal_hcd.o
LOAD ./system/src/stm32f7xx/stm32f7xx_hal_i2c.o
LOAD ./system/src/stm32f7xx/stm32f7xx_hal_i2c_ex.o
LOAD ./system/src/stm32f7xx/stm32f7xx_hal_i2s.o
LOAD ./system/src/stm32f7xx/stm32f7xx_hal_irda.o
LOAD ./system/src/stm32f7xx/stm32f7xx_hal_iwdg.o
LOAD ./system/src/stm32f7xx/stm32f7xx_hal_lptim.o
LOAD ./system/src/stm32f7xx/stm32f7xx_hal_ltdc.o
LOAD ./system/src/stm32f7xx/stm32f7xx_hal_msp_template.o
LOAD ./system/src/stm32f7xx/stm32f7xx_hal_nand.o
LOAD ./system/src/stm32f7xx/stm32f7xx_hal_nor.o
LOAD ./system/src/stm32f7xx/stm32f7xx_hal_pcd.o
LOAD ./system/src/stm32f7xx/stm32f7xx_hal_pcd_ex.o
LOAD ./system/src/stm32f7xx/stm32f7xx_hal_pwr.o
LOAD ./system/src/stm32f7xx/stm32f7xx_hal_pwr_ex.o
LOAD ./system/src/stm32f7xx/stm32f7xx_hal_qspi.o
LOAD ./system/src/stm32f7xx/stm32f7xx_hal_rcc.o
LOAD ./system/src/stm32f7xx/stm32f7xx_hal_rcc_ex.o
LOAD ./system/src/stm32f7xx/stm32f7xx_hal_rng.o
LOAD ./system/src/stm32f7xx/stm32f7xx_hal_rtc.o
LOAD ./system/src/stm32f7xx/stm32f7xx_hal_rtc_ex.o
LOAD ./system/src/stm32f7xx/stm32f7xx_hal_sai.o
LOAD ./system/src/stm32f7xx/stm32f7xx_hal_sai_ex.o
LOAD ./system/src/stm32f7xx/stm32f7xx_hal_sd.o
LOAD ./system/src/stm32f7xx/stm32f7xx_hal_sdram.o
LOAD ./system/src/stm32f7xx/stm32f7xx_hal_smartcard.o
LOAD ./system/src/stm32f7xx/stm32f7xx_hal_smartcard_ex.o
LOAD ./system/src/stm32f7xx/stm32f7xx_hal_spdifrx.o
LOAD ./system/src/stm32f7xx/stm32f7xx_hal_spi.o
LOAD ./system/src/stm32f7xx/stm32f7xx_hal_sram.o
LOAD ./system/src/stm32f7xx/stm32f7xx_hal_tim.o
LOAD ./system/src/stm32f7xx/stm32f7xx_hal_tim_ex.o
LOAD ./system/src/stm32f7xx/stm32f7xx_hal_uart.o
LOAD ./system/src/stm32f7xx/stm32f7xx_hal_usart.o
LOAD ./system/src/stm32f7xx/stm32f7xx_hal_wwdg.o
LOAD ./system/src/stm32f7xx/stm32f7xx_ll_fmc.o
LOAD ./system/src/stm32f7xx/stm32f7xx_ll_sdmmc.o
LOAD ./system/src/stm32f7xx/stm32f7xx_ll_usb.o
LOAD ./system/src/newlib/_cxx.o
LOAD ./system/src/newlib/_exit.o
LOAD ./system/src/newlib/_sbrk.o
LOAD ./system/src/newlib/_startup.o
LOAD ./system/src/newlib/_syscalls.o
LOAD ./system/src/newlib/assert.o
LOAD ./system/src/diag/Trace.o
LOAD ./system/src/diag/trace_impl.o
LOAD ./system/src/cortexm/_initialize_hardware.o
LOAD ./system/src/cortexm/_reset_hardware.o
LOAD ./system/src/cortexm/exception_handlers.o
LOAD ./system/src/cmsis/startup_stm32f746xx.o
LOAD ./system/src/cmsis/system_stm32f7xx.o
LOAD ./system/src/BSP/stm32746g_discovery.o
LOAD ./system/src/BSP/stm32746g_discovery_audio.o
LOAD ./system/src/BSP/stm32746g_discovery_camera.o
LOAD ./system/src/BSP/stm32746g_discovery_eeprom.o
LOAD ./system/src/BSP/stm32746g_discovery_lcd.o
LOAD ./system/src/BSP/stm32746g_discovery_qspi.o
LOAD ./system/src/BSP/stm32746g_discovery_sd.o
LOAD ./system/src/BSP/stm32746g_discovery_sdram.o
LOAD ./system/src/BSP/stm32746g_discovery_ts.o
LOAD ./system/include/Components/wm8994/wm8994.o
LOAD ./system/include/Components/ts3510/ts3510.o
LOAD ./system/include/Components/stmpe811/stmpe811.o
LOAD ./system/include/Components/s5k5cag/s5k5cag.o
LOAD ./system/include/Components/ov9655/ov9655.o
LOAD ./system/include/Components/mfxstm32l152/mfxstm32l152.o
LOAD ./system/include/Components/ft5336/ft5336.o
LOAD ./system/include/Components/exc7200/exc7200.o
LOAD ./src/_write.o
LOAD ./src/main.o
LOAD ./src/stm32f7xx_it.o
LOAD /Users/cnoviello/STM32Toolchain/gcc-arm-none-eabi-4_9-2015q2/bin/../lib/gcc/arm-none-eabi/4.9.3/../../../../arm-none-eabi/lib/cortex-m7/libstdc++_nano.a
LOAD /Users/cnoviello/STM32Toolchain/gcc-arm-none-eabi-4_9-2015q2/bin/../lib/gcc/arm-none-eabi/4.9.3/../../../../arm-none-eabi/lib/cortex-m7/libm.a
START GROUP
LOAD /Users/cnoviello/STM32Toolchain/gcc-arm-none-eabi-4_9-2015q2/bin/../lib/gcc/arm-none-eabi/4.9.3/cortex-m7/libgcc.a
LOAD /Users/cnoviello/STM32Toolchain/gcc-arm-none-eabi-4_9-2015q2/bin/../lib/gcc/arm-none-eabi/4.9.3/../../../../arm-none-eabi/lib/cortex-m7/libg_nano.a
LOAD /Users/cnoviello/STM32Toolchain/gcc-arm-none-eabi-4_9-2015q2/bin/../lib/gcc/arm-none-eabi/4.9.3/../../../../arm-none-eabi/lib/cortex-m7/libc_nano.a
END GROUP
START GROUP
LOAD /Users/cnoviello/STM32Toolchain/gcc-arm-none-eabi-4_9-2015q2/bin/../lib/gcc/arm-none-eabi/4.9.3/cortex-m7/libgcc.a
LOAD /Users/cnoviello/STM32Toolchain/gcc-arm-none-eabi-4_9-2015q2/bin/../lib/gcc/arm-none-eabi/4.9.3/../../../../arm-none-eabi/lib/cortex-m7/libc_nano.a
END GROUP
                0x0000000020050000                __stack = (ORIGIN (RAM) + 0x50000)
                0x0000000020050000                _estack = __stack
                0x0000000000000400                __Main_Stack_Size = 0x400
                0x0000000000000400                PROVIDE (_Main_Stack_Size, __Main_Stack_Size)
                0x000000002004fc00                __Main_Stack_Limit = (__stack - __Main_Stack_Size)
                0x000000002004fc00                PROVIDE (_Main_Stack_Limit, __Main_Stack_Limit)
                0x0000000000000100                _Minimum_Stack_Size = 0x100
                0x000000002000035c                PROVIDE (_Heap_Begin, _end_noinit)
                0x000000002004fc00                PROVIDE (_Heap_Limit, (__stack - __Main_Stack_Size))

.isr_vector     0x0000000008000000      0x3e0
                0x0000000008000000                . = ALIGN (0x4)
 *(.isr_vector)
 .isr_vector    0x0000000008000000      0x1c8 ./system/src/cmsis/startup_stm32f746xx.o
                0x0000000008000000                g_pfnVectors
 *(.cfmconfig)
 *(.after_vectors .after_vectors.*)
 .after_vectors
                0x00000000080001c8      0x114 ./system/src/newlib/_startup.o
                0x00000000080001c8                _start
 .after_vectors
                0x00000000080002dc      0x104 ./system/src/cortexm/exception_handlers.o
                0x00000000080002dc                Reset_Handler
                0x00000000080002e4                NMI_Handler
                0x00000000080002e8                HardFault_Handler
                0x00000000080002fc                HardFault_Handler_C
                0x0000000008000330                MemManage_Handler
                0x0000000008000334                BusFault_Handler
                0x0000000008000348                BusFault_Handler_C
                0x000000000800037c                UsageFault_Handler
                0x0000000008000390                UsageFault_Handler_C
                0x00000000080003c4                SVC_Handler
                0x00000000080003c8                DebugMon_Handler
                0x00000000080003cc                PendSV_Handler
                0x00000000080003e0                . = ALIGN (0x4)

.inits          0x00000000080003e0        0x0
                0x00000000080003e0                . = ALIGN (0x4)
 *(.init)
 *(.fini)
                0x00000000080003e0                . = ALIGN (0x4)
                0x00000000080003e0                PROVIDE (__preinit_array_start, .)
 *(.preinit_array_sysinit .preinit_array_sysinit.*)
 *(.preinit_array_platform .preinit_array_platform.*)
 *(.preinit_array .preinit_array.*)
                0x00000000080003e0                PROVIDE (__preinit_array_end, .)
                0x00000000080003e0                . = ALIGN (0x4)
                0x00000000080003e0                PROVIDE (__init_array_start, .)
 *(SORT(.init_array.*))
 *(.init_array)
                0x00000000080003e0                PROVIDE (__init_array_end, .)
                0x00000000080003e0                . = ALIGN (0x4)
                0x00000000080003e0                PROVIDE (__fini_array_start, .)
 *(SORT(.fini_array.*))
 *(.fini_array)
                0x00000000080003e0                PROVIDE (__fini_array_end, .)
                0x00000000080003e0                . = ALIGN (0x4)

.flashtext      0x00000000080003e0        0x0
                0x00000000080003e0                . = ALIGN (0x4)
 *(.flashtext .flashtext.*)
                0x00000000080003e0                . = ALIGN (0x4)

.text           0x00000000080003e0     0x5aa5
                0x00000000080003e0                . = ALIGN (0x4)
 *(.text .text.*)
 .text.HAL_InitTick
                0x00000000080003e0       0x28 ./system/src/stm32f7xx/stm32f7xx_hal.o
                0x00000000080003e0                HAL_InitTick
 .text.HAL_Init
                0x0000000008000408       0x18 ./system/src/stm32f7xx/stm32f7xx_hal.o
                0x0000000008000408                HAL_Init
 .text.HAL_IncTick
                0x0000000008000420       0x10 ./system/src/stm32f7xx/stm32f7xx_hal.o
                0x0000000008000420                HAL_IncTick
 .text.HAL_GetTick
                0x0000000008000430        0xc ./system/src/stm32f7xx/stm32f7xx_hal.o
                0x0000000008000430                HAL_GetTick
 .text.HAL_Delay
                0x000000000800043c       0x1c ./system/src/stm32f7xx/stm32f7xx_hal.o
                0x000000000800043c                HAL_Delay
 .text.HAL_NVIC_SetPriorityGrouping
                0x0000000008000458       0x24 ./system/src/stm32f7xx/stm32f7xx_hal_cortex.o
                0x0000000008000458                HAL_NVIC_SetPriorityGrouping
 .text.HAL_NVIC_SetPriority
                0x000000000800047c       0x60 ./system/src/stm32f7xx/stm32f7xx_hal_cortex.o
                0x000000000800047c                HAL_NVIC_SetPriority
 .text.HAL_NVIC_EnableIRQ
                0x00000000080004dc       0x18 ./system/src/stm32f7xx/stm32f7xx_hal_cortex.o
                0x00000000080004dc                HAL_NVIC_EnableIRQ
 .text.HAL_SYSTICK_Config
                0x00000000080004f4       0x2c ./system/src/stm32f7xx/stm32f7xx_hal_cortex.o
                0x00000000080004f4                HAL_SYSTICK_Config
 .text.HAL_SYSTICK_Callback
                0x0000000008000520        0x4 ./system/src/stm32f7xx/stm32f7xx_hal_cortex.o
                0x0000000008000520                HAL_SYSTICK_Callback
 .text.HAL_SYSTICK_IRQHandler
                0x0000000008000524        0x8 ./system/src/stm32f7xx/stm32f7xx_hal_cortex.o
                0x0000000008000524                HAL_SYSTICK_IRQHandler
 .text.HAL_DMA_Init
                0x000000000800052c       0x78 ./system/src/stm32f7xx/stm32f7xx_hal_dma.o
                0x000000000800052c                HAL_DMA_Init
 .text.HAL_DMA_DeInit
                0x00000000080005a4      0xe3c ./system/src/stm32f7xx/stm32f7xx_hal_dma.o
                0x00000000080005a4                HAL_DMA_DeInit
 .text.DMA2D_SetConfig
                0x00000000080013e0       0x8c ./system/src/stm32f7xx/stm32f7xx_hal_dma2d.o
 .text.HAL_DMA2D_MspInit
                0x000000000800146c        0x4 ./system/src/stm32f7xx/stm32f7xx_hal_dma2d.o
                0x000000000800146c                HAL_DMA2D_MspInit
 .text.HAL_DMA2D_Init
                0x0000000008001470       0x60 ./system/src/stm32f7xx/stm32f7xx_hal_dma2d.o
                0x0000000008001470                HAL_DMA2D_Init
 .text.HAL_DMA2D_Start
                0x00000000080014d0       0x44 ./system/src/stm32f7xx/stm32f7xx_hal_dma2d.o
                0x00000000080014d0                HAL_DMA2D_Start
 .text.HAL_DMA2D_PollForTransfer
                0x0000000008001514       0xe0 ./system/src/stm32f7xx/stm32f7xx_hal_dma2d.o
                0x0000000008001514                HAL_DMA2D_PollForTransfer
 .text.HAL_DMA2D_ConfigLayer
                0x00000000080015f4      0x10c ./system/src/stm32f7xx/stm32f7xx_hal_dma2d.o
                0x00000000080015f4                HAL_DMA2D_ConfigLayer
 .text.HAL_GPIO_Init
                0x0000000008001700      0x1e4 ./system/src/stm32f7xx/stm32f7xx_hal_gpio.o
                0x0000000008001700                HAL_GPIO_Init
 .text.HAL_GPIO_WritePin
                0x00000000080018e4        0xc ./system/src/stm32f7xx/stm32f7xx_hal_gpio.o
                0x00000000080018e4                HAL_GPIO_WritePin
 .text.LTDC_SetConfig
                0x00000000080018f0      0x190 ./system/src/stm32f7xx/stm32f7xx_hal_ltdc.o
 .text.HAL_LTDC_MspInit
                0x0000000008001a80        0x4 ./system/src/stm32f7xx/stm32f7xx_hal_ltdc.o
                0x0000000008001a80                HAL_LTDC_MspInit
 .text.HAL_LTDC_Init
                0x0000000008001a84      0x100 ./system/src/stm32f7xx/stm32f7xx_hal_ltdc.o
                0x0000000008001a84                HAL_LTDC_Init
 .text.HAL_LTDC_ConfigLayer
                0x0000000008001b84       0x5c ./system/src/stm32f7xx/stm32f7xx_hal_ltdc.o
                0x0000000008001b84                HAL_LTDC_ConfigLayer
 .text.HAL_LTDC_SetAlpha
                0x0000000008001be0       0x40 ./system/src/stm32f7xx/stm32f7xx_hal_ltdc.o
                0x0000000008001be0                HAL_LTDC_SetAlpha
 .text.HAL_LTDC_GetState
                0x0000000008001c20        0x8 ./system/src/stm32f7xx/stm32f7xx_hal_ltdc.o
                0x0000000008001c20                HAL_LTDC_GetState
 .text.HAL_MspInit
                0x0000000008001c28        0x4 ./system/src/stm32f7xx/stm32f7xx_hal_msp_template.o
                0x0000000008001c28                HAL_MspInit
 .text.HAL_PWREx_EnableOverDrive
                0x0000000008001c2c       0x80 ./system/src/stm32f7xx/stm32f7xx_hal_pwr_ex.o
                0x0000000008001c2c                HAL_PWREx_EnableOverDrive
 .text.HAL_RCC_OscConfig
                0x0000000008001cac      0x490 ./system/src/stm32f7xx/stm32f7xx_hal_rcc.o
                0x0000000008001cac                HAL_RCC_OscConfig
 .text.HAL_RCC_ClockConfig
                0x000000000800213c      0x238 ./system/src/stm32f7xx/stm32f7xx_hal_rcc.o
                0x000000000800213c                HAL_RCC_ClockConfig
 .text.HAL_RCC_GetSysClockFreq
                0x0000000008002374       0x94 ./system/src/stm32f7xx/stm32f7xx_hal_rcc.o
                0x0000000008002374                HAL_RCC_GetSysClockFreq
 .text.HAL_RCC_GetHCLKFreq
                0x0000000008002408       0x34 ./system/src/stm32f7xx/stm32f7xx_hal_rcc.o
                0x0000000008002408                HAL_RCC_GetHCLKFreq
 .text.HAL_RCCEx_PeriphCLKConfig
                0x000000000800243c      0x670 ./system/src/stm32f7xx/stm32f7xx_hal_rcc_ex.o
                0x000000000800243c                HAL_RCCEx_PeriphCLKConfig
 .text.HAL_SDRAM_MspInit
                0x0000000008002aac        0x4 ./system/src/stm32f7xx/stm32f7xx_hal_sdram.o
                0x0000000008002aac                HAL_SDRAM_MspInit
 .text.HAL_SDRAM_Init
                0x0000000008002ab0       0x44 ./system/src/stm32f7xx/stm32f7xx_hal_sdram.o
                0x0000000008002ab0                HAL_SDRAM_Init
 .text.HAL_SDRAM_SendCommand
                0x0000000008002af4       0x3c ./system/src/stm32f7xx/stm32f7xx_hal_sdram.o
                0x0000000008002af4                HAL_SDRAM_SendCommand
 .text.HAL_SDRAM_ProgramRefreshRate
                0x0000000008002b30       0x28 ./system/src/stm32f7xx/stm32f7xx_hal_sdram.o
                0x0000000008002b30                HAL_SDRAM_ProgramRefreshRate
 .text.FMC_SDRAM_Init
                0x0000000008002b58       0x74 ./system/src/stm32f7xx/stm32f7xx_ll_fmc.o
                0x0000000008002b58                FMC_SDRAM_Init
 .text.FMC_SDRAM_Timing_Init
                0x0000000008002bcc       0x94 ./system/src/stm32f7xx/stm32f7xx_ll_fmc.o
                0x0000000008002bcc                FMC_SDRAM_Timing_Init
 .text.FMC_SDRAM_SendCommand
                0x0000000008002c60       0x5c ./system/src/stm32f7xx/stm32f7xx_ll_fmc.o
                0x0000000008002c60                FMC_SDRAM_SendCommand
 .text.FMC_SDRAM_ProgramRefreshRate
                0x0000000008002cbc        0xc ./system/src/stm32f7xx/stm32f7xx_ll_fmc.o
                0x0000000008002cbc                FMC_SDRAM_ProgramRefreshRate
 .text._exit    0x0000000008002cc8        0x4 ./system/src/newlib/_exit.o
                0x0000000008002cc8                _exit
 .text._sbrk    0x0000000008002ccc       0x44 ./system/src/newlib/_sbrk.o
                0x0000000008002ccc                _sbrk
 .text.__initialize_args
                0x0000000008002d10       0x10 ./system/src/newlib/_syscalls.o
                0x0000000008002d10                __initialize_args
 .text.trace_printf
                0x0000000008002d20       0x34 ./system/src/diag/Trace.o
                0x0000000008002d20                trace_printf
 .text.trace_write
                0x0000000008002d54        0x8 ./system/src/diag/trace_impl.o
                0x0000000008002d54                trace_write
 .text.__initialize_hardware_early
                0x0000000008002d5c        0x8 ./system/src/cortexm/_initialize_hardware.o
                0x0000000008002d5c                __initialize_hardware_early
 .text.__initialize_hardware
                0x0000000008002d64        0x8 ./system/src/cortexm/_initialize_hardware.o
                0x0000000008002d64                __initialize_hardware
 .text.dumpExceptionStack
                0x0000000008002d6c       0xf0 ./system/src/cortexm/exception_handlers.o
                0x0000000008002d6c                dumpExceptionStack
 .text.Default_Handler
                0x0000000008002e5c        0x2 ./system/src/cmsis/startup_stm32f746xx.o
                0x0000000008002e5c                DMA1_Stream3_IRQHandler
                0x0000000008002e5c                EXTI2_IRQHandler
                0x0000000008002e5c                TIM8_CC_IRQHandler
                0x0000000008002e5c                UART8_IRQHandler
                0x0000000008002e5c                SPI4_IRQHandler
                0x0000000008002e5c                TIM1_CC_IRQHandler
                0x0000000008002e5c                DMA2_Stream5_IRQHandler
                0x0000000008002e5c                DMA1_Stream5_IRQHandler
                0x0000000008002e5c                PVD_IRQHandler
                0x0000000008002e5c                TAMP_STAMP_IRQHandler
                0x0000000008002e5c                CAN2_RX1_IRQHandler
                0x0000000008002e5c                EXTI3_IRQHandler
                0x0000000008002e5c                TIM8_TRG_COM_TIM14_IRQHandler
                0x0000000008002e5c                TIM1_UP_TIM10_IRQHandler
                0x0000000008002e5c                TIM8_UP_TIM13_IRQHandler
                0x0000000008002e5c                I2C3_ER_IRQHandler
                0x0000000008002e5c                EXTI0_IRQHandler
                0x0000000008002e5c                I2C2_EV_IRQHandler
                0x0000000008002e5c                DMA1_Stream2_IRQHandler
                0x0000000008002e5c                CAN1_RX0_IRQHandler
                0x0000000008002e5c                FPU_IRQHandler
                0x0000000008002e5c                OTG_HS_WKUP_IRQHandler
                0x0000000008002e5c                LTDC_ER_IRQHandler
                0x0000000008002e5c                CAN2_SCE_IRQHandler
                0x0000000008002e5c                DMA2_Stream2_IRQHandler
                0x0000000008002e5c                SPI1_IRQHandler
                0x0000000008002e5c                TIM6_DAC_IRQHandler
                0x0000000008002e5c                TIM1_BRK_TIM9_IRQHandler
                0x0000000008002e5c                DCMI_IRQHandler
                0x0000000008002e5c                CAN2_RX0_IRQHandler
                0x0000000008002e5c                DMA2_Stream3_IRQHandler
                0x0000000008002e5c                SAI2_IRQHandler
                0x0000000008002e5c                USART6_IRQHandler
                0x0000000008002e5c                USART3_IRQHandler
                0x0000000008002e5c                CAN1_RX1_IRQHandler
                0x0000000008002e5c                UART5_IRQHandler
                0x0000000008002e5c                DMA2_Stream0_IRQHandler
                0x0000000008002e5c                TIM4_IRQHandler
                0x0000000008002e5c                QUADSPI_IRQHandler
                0x0000000008002e5c                I2C1_EV_IRQHandler
                0x0000000008002e5c                DMA1_Stream6_IRQHandler
                0x0000000008002e5c                DMA1_Stream1_IRQHandler
                0x0000000008002e5c                UART4_IRQHandler
                0x0000000008002e5c                TIM3_IRQHandler
                0x0000000008002e5c                RCC_IRQHandler
                0x0000000008002e5c                TIM8_BRK_TIM12_IRQHandler
                0x0000000008002e5c                Default_Handler
                0x0000000008002e5c                CEC_IRQHandler
                0x0000000008002e5c                EXTI15_10_IRQHandler
                0x0000000008002e5c                ADC_IRQHandler
                0x0000000008002e5c                DMA1_Stream7_IRQHandler
                0x0000000008002e5c                SPI5_IRQHandler
                0x0000000008002e5c                TIM7_IRQHandler
                0x0000000008002e5c                SDMMC1_IRQHandler
                0x0000000008002e5c                CAN2_TX_IRQHandler
                0x0000000008002e5c                TIM5_IRQHandler
                0x0000000008002e5c                DMA2_Stream7_IRQHandler
                0x0000000008002e5c                I2C3_EV_IRQHandler
                0x0000000008002e5c                EXTI9_5_IRQHandler
                0x0000000008002e5c                RTC_WKUP_IRQHandler
                0x0000000008002e5c                LTDC_IRQHandler
                0x0000000008002e5c                ETH_WKUP_IRQHandler
                0x0000000008002e5c                SPDIF_RX_IRQHandler
                0x0000000008002e5c                SPI2_IRQHandler
                0x0000000008002e5c                OTG_HS_EP1_IN_IRQHandler
                0x0000000008002e5c                DMA1_Stream0_IRQHandler
                0x0000000008002e5c                CAN1_TX_IRQHandler
                0x0000000008002e5c                EXTI4_IRQHandler
                0x0000000008002e5c                RNG_IRQHandler
                0x0000000008002e5c                ETH_IRQHandler
                0x0000000008002e5c                OTG_HS_EP1_OUT_IRQHandler
                0x0000000008002e5c                WWDG_IRQHandler
                0x0000000008002e5c                SPI6_IRQHandler
                0x0000000008002e5c                I2C4_EV_IRQHandler
                0x0000000008002e5c                TIM2_IRQHandler
                0x0000000008002e5c                OTG_FS_WKUP_IRQHandler
                0x0000000008002e5c                TIM1_TRG_COM_TIM11_IRQHandler
                0x0000000008002e5c                OTG_HS_IRQHandler
                0x0000000008002e5c                DMA2D_IRQHandler
                0x0000000008002e5c                EXTI1_IRQHandler
                0x0000000008002e5c                UART7_IRQHandler
                0x0000000008002e5c                USART2_IRQHandler
                0x0000000008002e5c                I2C2_ER_IRQHandler
                0x0000000008002e5c                DMA2_Stream1_IRQHandler
                0x0000000008002e5c                CAN1_SCE_IRQHandler
                0x0000000008002e5c                FLASH_IRQHandler
                0x0000000008002e5c                DMA2_Stream4_IRQHandler
                0x0000000008002e5c                USART1_IRQHandler
                0x0000000008002e5c                OTG_FS_IRQHandler
                0x0000000008002e5c                SPI3_IRQHandler
                0x0000000008002e5c                DMA1_Stream4_IRQHandler
                0x0000000008002e5c                I2C1_ER_IRQHandler
                0x0000000008002e5c                FMC_IRQHandler
                0x0000000008002e5c                LPTIM1_IRQHandler
                0x0000000008002e5c                I2C4_ER_IRQHandler
                0x0000000008002e5c                DMA2_Stream6_IRQHandler
                0x0000000008002e5c                SAI1_IRQHandler
                0x0000000008002e5c                RTC_Alarm_IRQHandler
 *fill*         0x0000000008002e5e        0x2 
 .text.SystemInit
                0x0000000008002e60       0x40 ./system/src/cmsis/system_stm32f7xx.o
                0x0000000008002e60                SystemInit
 .text.SystemCoreClockUpdate
                0x0000000008002ea0       0xa0 ./system/src/cmsis/system_stm32f7xx.o
                0x0000000008002ea0                SystemCoreClockUpdate
 .text.LL_FillBuffer
                0x0000000008002f40       0x7c ./system/src/BSP/stm32746g_discovery_lcd.o
 .text.BSP_LCD_GetXSize
                0x0000000008002fbc       0x18 ./system/src/BSP/stm32746g_discovery_lcd.o
                0x0000000008002fbc                BSP_LCD_GetXSize
 .text.BSP_LCD_GetYSize
                0x0000000008002fd4       0x18 ./system/src/BSP/stm32746g_discovery_lcd.o
                0x0000000008002fd4                BSP_LCD_GetYSize
 .text.BSP_LCD_LayerDefaultInit
                0x0000000008002fec       0x80 ./system/src/BSP/stm32746g_discovery_lcd.o
                0x0000000008002fec                BSP_LCD_LayerDefaultInit
 .text.BSP_LCD_SelectLayer
                0x000000000800306c        0xc ./system/src/BSP/stm32746g_discovery_lcd.o
                0x000000000800306c                BSP_LCD_SelectLayer
 .text.BSP_LCD_SetTransparency
                0x0000000008003078       0x10 ./system/src/BSP/stm32746g_discovery_lcd.o
                0x0000000008003078                BSP_LCD_SetTransparency
 .text.BSP_LCD_SetTextColor
                0x0000000008003088       0x18 ./system/src/BSP/stm32746g_discovery_lcd.o
                0x0000000008003088                BSP_LCD_SetTextColor
 .text.BSP_LCD_SetBackColor
                0x00000000080030a0       0x1c ./system/src/BSP/stm32746g_discovery_lcd.o
                0x00000000080030a0                BSP_LCD_SetBackColor
 .text.BSP_LCD_SetFont
                0x00000000080030bc       0x1c ./system/src/BSP/stm32746g_discovery_lcd.o
                0x00000000080030bc                BSP_LCD_SetFont
 .text.BSP_LCD_Clear
                0x00000000080030d8       0x3c ./system/src/BSP/stm32746g_discovery_lcd.o
                0x00000000080030d8                BSP_LCD_Clear
 .text.BSP_LCD_DrawPixel
                0x0000000008003114       0x54 ./system/src/BSP/stm32746g_discovery_lcd.o
                0x0000000008003114                BSP_LCD_DrawPixel
 .text.DrawChar
                0x0000000008003168       0xe0 ./system/src/BSP/stm32746g_discovery_lcd.o
 .text.BSP_LCD_DisplayChar
                0x0000000008003248       0x34 ./system/src/BSP/stm32746g_discovery_lcd.o
                0x0000000008003248                BSP_LCD_DisplayChar
 .text.BSP_LCD_DisplayStringAt
                0x000000000800327c       0xd0 ./system/src/BSP/stm32746g_discovery_lcd.o
                0x000000000800327c                BSP_LCD_DisplayStringAt
 .text.BSP_LCD_DisplayOn
                0x000000000800334c       0x34 ./system/src/BSP/stm32746g_discovery_lcd.o
                0x000000000800334c                BSP_LCD_DisplayOn
 .text.BSP_LCD_MspInit
                0x0000000008003380      0x148 ./system/src/BSP/stm32746g_discovery_lcd.o
                0x0000000008003380                BSP_LCD_MspInit
 .text.BSP_LCD_ClockConfig
                0x00000000080034c8       0x20 ./system/src/BSP/stm32746g_discovery_lcd.o
                0x00000000080034c8                BSP_LCD_ClockConfig
 .text.BSP_LCD_Init
                0x00000000080034e8       0xa8 ./system/src/BSP/stm32746g_discovery_lcd.o
                0x00000000080034e8                BSP_LCD_Init
 .text.BSP_SDRAM_Initialization_sequence
                0x0000000008003590       0x9c ./system/src/BSP/stm32746g_discovery_sdram.o
                0x0000000008003590                BSP_SDRAM_Initialization_sequence
 .text.BSP_SDRAM_MspInit
                0x000000000800362c      0x17c ./system/src/BSP/stm32746g_discovery_sdram.o
                0x000000000800362c                BSP_SDRAM_MspInit
 .text.BSP_SDRAM_Init
                0x00000000080037a8       0x80 ./system/src/BSP/stm32746g_discovery_sdram.o
                0x00000000080037a8                BSP_SDRAM_Init
 .text.CPU_CACHE_Enable
                0x0000000008003828       0x88 ./src/main.o
 .text.SystemClock_Config
                0x00000000080038b0       0x64 ./src/main.o
 .text.LCD_Config
                0x0000000008003914       0x2c ./src/main.o
 .text.main     0x0000000008003940       0x74 ./src/main.o
                0x0000000008003940                main
 .text.SysTick_Handler
                0x00000000080039b4        0xc ./src/stm32f7xx_it.o
                0x00000000080039b4                SysTick_Handler
 .text.__errno  0x00000000080039c0        0xc /Users/cnoviello/STM32Toolchain/gcc-arm-none-eabi-4_9-2015q2/bin/../lib/gcc/arm-none-eabi/4.9.3/../../../../arm-none-eabi/lib/cortex-m7/libg_nano.a(lib_a-errno.o)
                0x00000000080039c0                __errno
 .text.memcpy   0x00000000080039cc       0x16 /Users/cnoviello/STM32Toolchain/gcc-arm-none-eabi-4_9-2015q2/bin/../lib/gcc/arm-none-eabi/4.9.3/../../../../arm-none-eabi/lib/cortex-m7/libg_nano.a(lib_a-memcpy.o)
                0x00000000080039cc                memcpy
 .text._vsnprintf_r
                0x00000000080039e2       0x52 /Users/cnoviello/STM32Toolchain/gcc-arm-none-eabi-4_9-2015q2/bin/../lib/gcc/arm-none-eabi/4.9.3/../../../../arm-none-eabi/lib/cortex-m7/libg_nano.a(lib_a-vsnprintf.o)
                0x00000000080039e2                _vsnprintf_r
                0x00000000080039e2                _vsniprintf_r
 .text.vsnprintf
                0x0000000008003a34       0x20 /Users/cnoviello/STM32Toolchain/gcc-arm-none-eabi-4_9-2015q2/bin/../lib/gcc/arm-none-eabi/4.9.3/../../../../arm-none-eabi/lib/cortex-m7/libg_nano.a(lib_a-vsnprintf.o)
                0x0000000008003a34                vsnprintf
                0x0000000008003a34                vsniprintf
 .text.__ssputs_r
                0x0000000008003a54       0xb2 /Users/cnoviello/STM32Toolchain/gcc-arm-none-eabi-4_9-2015q2/bin/../lib/gcc/arm-none-eabi/4.9.3/../../../../arm-none-eabi/lib/cortex-m7/libg_nano.a(lib_a-nano-svfprintf.o)
                0x0000000008003a54                __ssputs_r
 *fill*         0x0000000008003b06        0x2 
 .text._svfprintf_r
                0x0000000008003b08      0x1e4 /Users/cnoviello/STM32Toolchain/gcc-arm-none-eabi-4_9-2015q2/bin/../lib/gcc/arm-none-eabi/4.9.3/../../../../arm-none-eabi/lib/cortex-m7/libg_nano.a(lib_a-nano-svfprintf.o)
                0x0000000008003b08                _svfprintf_r
                0x0000000008003b08                _svfiprintf_r
 .text._printf_common
                0x0000000008003cec       0xea /Users/cnoviello/STM32Toolchain/gcc-arm-none-eabi-4_9-2015q2/bin/../lib/gcc/arm-none-eabi/4.9.3/../../../../arm-none-eabi/lib/cortex-m7/libg_nano.a(lib_a-nano-vfprintf_i.o)
                0x0000000008003cec                _printf_common
 *fill*         0x0000000008003dd6        0x2 
 .text._printf_i
                0x0000000008003dd8      0x23c /Users/cnoviello/STM32Toolchain/gcc-arm-none-eabi-4_9-2015q2/bin/../lib/gcc/arm-none-eabi/4.9.3/../../../../arm-none-eabi/lib/cortex-m7/libg_nano.a(lib_a-nano-vfprintf_i.o)
                0x0000000008003dd8                _printf_i
 .text.memchr   0x0000000008004014       0x1c /Users/cnoviello/STM32Toolchain/gcc-arm-none-eabi-4_9-2015q2/bin/../lib/gcc/arm-none-eabi/4.9.3/../../../../arm-none-eabi/lib/cortex-m7/libg_nano.a(lib_a-memchr.o)
                0x0000000008004014                memchr
 .text.memmove  0x0000000008004030       0x36 /Users/cnoviello/STM32Toolchain/gcc-arm-none-eabi-4_9-2015q2/bin/../lib/gcc/arm-none-eabi/4.9.3/../../../../arm-none-eabi/lib/cortex-m7/libg_nano.a(lib_a-memmove.o)
                0x0000000008004030                memmove
 *fill*         0x0000000008004066        0x2 
 .text._free_r  0x0000000008004068       0x88 /Users/cnoviello/STM32Toolchain/gcc-arm-none-eabi-4_9-2015q2/bin/../lib/gcc/arm-none-eabi/4.9.3/../../../../arm-none-eabi/lib/cortex-m7/libg_nano.a(lib_a-nano-freer.o)
                0x0000000008004068                _free_r
 .text._malloc_r
                0x00000000080040f0       0xac /Users/cnoviello/STM32Toolchain/gcc-arm-none-eabi-4_9-2015q2/bin/../lib/gcc/arm-none-eabi/4.9.3/../../../../arm-none-eabi/lib/cortex-m7/libg_nano.a(lib_a-nano-mallocr.o)
                0x00000000080040f0                _malloc_r
 .text._realloc_r
                0x000000000800419c       0x4c /Users/cnoviello/STM32Toolchain/gcc-arm-none-eabi-4_9-2015q2/bin/../lib/gcc/arm-none-eabi/4.9.3/../../../../arm-none-eabi/lib/cortex-m7/libg_nano.a(lib_a-nano-reallocr.o)
                0x000000000800419c                _realloc_r
 .text._sbrk_r  0x00000000080041e8       0x20 /Users/cnoviello/STM32Toolchain/gcc-arm-none-eabi-4_9-2015q2/bin/../lib/gcc/arm-none-eabi/4.9.3/../../../../arm-none-eabi/lib/cortex-m7/libg_nano.a(lib_a-sbrkr.o)
                0x00000000080041e8                _sbrk_r
 .text._malloc_usable_size_r
                0x0000000008004208       0x14 /Users/cnoviello/STM32Toolchain/gcc-arm-none-eabi-4_9-2015q2/bin/../lib/gcc/arm-none-eabi/4.9.3/../../../../arm-none-eabi/lib/cortex-m7/libg_nano.a(lib_a-nano-msizer.o)
                0x0000000008004208                _malloc_usable_size_r
 *(.rodata .rodata.*)
 .rodata.APBAHBPrescTable
                0x000000000800421c       0x10 ./system/src/stm32f7xx/stm32f7xx_hal_rcc.o
                0x000000000800421c                APBAHBPrescTable
 .rodata.str1.4
                0x000000000800422c      0x146 ./system/src/cortexm/exception_handlers.o
 *fill*         0x0000000008004372        0x2 
 .rodata.AHBPrescTable
                0x0000000008004374       0x10 ./system/src/cmsis/system_stm32f7xx.o
                0x0000000008004374                AHBPrescTable
 .rodata.Font24_Table
                0x0000000008004384     0x1ab8 ./system/src/BSP/stm32746g_discovery_lcd.o
                0x0000000008004384                Font24_Table
 .rodata.str1.4
                0x0000000008005e3c       0x14 ./src/main.o
                                         0x13 (size before relaxing)
 .rodata.str1.1
                0x0000000008005e50        0x2 /Users/cnoviello/STM32Toolchain/gcc-arm-none-eabi-4_9-2015q2/bin/../lib/gcc/arm-none-eabi/4.9.3/../../../../arm-none-eabi/lib/cortex-m7/libg_nano.a(lib_a-impure.o)
 .rodata.str1.1
                0x0000000008005e52       0x11 /Users/cnoviello/STM32Toolchain/gcc-arm-none-eabi-4_9-2015q2/bin/../lib/gcc/arm-none-eabi/4.9.3/../../../../arm-none-eabi/lib/cortex-m7/libg_nano.a(lib_a-nano-svfprintf.o)
 .rodata.str1.1
                0x0000000008005e63       0x22 /Users/cnoviello/STM32Toolchain/gcc-arm-none-eabi-4_9-2015q2/bin/../lib/gcc/arm-none-eabi/4.9.3/../../../../arm-none-eabi/lib/cortex-m7/libg_nano.a(lib_a-nano-vfprintf_i.o)
 *(vtable)
 *(.eh_frame*)
 *(.glue_7)
 .glue_7        0x0000000000000000        0x0 linker stubs
 *(.glue_7t)
 .glue_7t       0x0000000000000000        0x0 linker stubs

.vfp11_veneer   0x0000000008005e88        0x0
 .vfp11_veneer  0x0000000000000000        0x0 linker stubs

.v4_bx          0x0000000008005e88        0x0
 .v4_bx         0x0000000000000000        0x0 linker stubs

.iplt           0x0000000008005e88        0x0
 .iplt          0x0000000000000000        0x0 ./system/src/stm32f7xx/stm32f7xx_hal.o

.rel.dyn        0x0000000008005e88        0x0
 .rel.iplt      0x0000000000000000        0x0 ./system/src/stm32f7xx/stm32f7xx_hal.o

.ARM.extab
 *(.ARM.extab* .gnu.linkonce.armextab.*)
                0x0000000008005e88                __exidx_start = .

.ARM.exidx
 *(.ARM.exidx* .gnu.linkonce.armexidx.*)
                0x0000000008005e88                __exidx_end = .
                0x0000000008005e88                . = ALIGN (0x4)
                0x0000000008005e88                _etext = .
                0x0000000008005e88                __etext = .
                0x0000000008005e88                _sidata = _etext

.data           0x0000000020000000       0x84 load address 0x0000000008005e88
                0x0000000020000000                . = ALIGN (0x4)
                0x0000000020000000                _sdata = .
                0x0000000020000000                __data_start__ = .
 *(.data_begin .data_begin.*)
 .data_begin    0x0000000020000000        0x4 ./system/src/newlib/_startup.o
 *(.data .data.*)
 .data.argv.4157
                0x0000000020000004        0x8 ./system/src/newlib/_syscalls.o
 .data.SystemCoreClock
                0x000000002000000c        0x4 ./system/src/cmsis/system_stm32f7xx.o
                0x000000002000000c                SystemCoreClock
 .data.Font24   0x0000000020000010        0x8 ./system/src/BSP/stm32746g_discovery_lcd.o
                0x0000000020000010                Font24
 .data.sdramstatus.8734
                0x0000000020000018        0x1 ./system/src/BSP/stm32746g_discovery_sdram.o
 *fill*         0x0000000020000019        0x3 
 .data.impure_data
                0x000000002000001c       0x60 /Users/cnoviello/STM32Toolchain/gcc-arm-none-eabi-4_9-2015q2/bin/../lib/gcc/arm-none-eabi/4.9.3/../../../../arm-none-eabi/lib/cortex-m7/libg_nano.a(lib_a-impure.o)
 .data._impure_ptr
                0x000000002000007c        0x4 /Users/cnoviello/STM32Toolchain/gcc-arm-none-eabi-4_9-2015q2/bin/../lib/gcc/arm-none-eabi/4.9.3/../../../../arm-none-eabi/lib/cortex-m7/libg_nano.a(lib_a-impure.o)
                0x000000002000007c                _impure_ptr
 *(.data_end .data_end.*)
 .data_end      0x0000000020000080        0x4 ./system/src/newlib/_startup.o
                0x0000000020000084                . = ALIGN (0x4)
                0x0000000020000084                _edata = .
                0x0000000020000084                __data_end__ = .

.igot.plt       0x0000000020000084        0x0 load address 0x0000000008005f0c
 .igot.plt      0x0000000000000000        0x0 ./system/src/stm32f7xx/stm32f7xx_hal.o

.bss            0x0000000020000084      0x2d8 load address 0x0000000008005f0c
                0x0000000020000084                . = ALIGN (0x4)
                0x0000000020000084                __bss_start__ = .
                0x0000000020000084                _sbss = .
 *(.bss_begin .bss_begin.*)
 .bss_begin     0x0000000020000084        0x4 ./system/src/newlib/_startup.o
 *(.bss .bss.*)
 .bss.uwTick    0x0000000020000088        0x4 ./system/src/stm32f7xx/stm32f7xx_hal.o
 .bss.current_heap_end.3862
                0x000000002000008c        0x4 ./system/src/newlib/_sbrk.o
 .bss.name.4156
                0x0000000020000090        0x1 ./system/src/newlib/_syscalls.o
 *fill*         0x0000000020000091        0x3 
 .bss.buf.4998  0x0000000020000094       0x80 ./system/src/diag/Trace.o
 .bss.ActiveLayer
                0x0000000020000114        0x4 ./system/src/BSP/stm32746g_discovery_lcd.o
 .bss.hLtdcHandler
                0x0000000020000118       0xa8 ./system/src/BSP/stm32746g_discovery_lcd.o
 .bss.DrawProp  0x00000000200001c0       0x18 ./system/src/BSP/stm32746g_discovery_lcd.o
 .bss.periph_clk_init_struct.9270
                0x00000000200001d8       0x84 ./system/src/BSP/stm32746g_discovery_lcd.o
 .bss.hDma2dHandler
                0x000000002000025c       0x40 ./system/src/BSP/stm32746g_discovery_lcd.o
 .bss.Command   0x000000002000029c       0x10 ./system/src/BSP/stm32746g_discovery_sdram.o
 .bss.sdramHandle
                0x00000000200002ac       0x34 ./system/src/BSP/stm32746g_discovery_sdram.o
 .bss.Timing    0x00000000200002e0       0x1c ./system/src/BSP/stm32746g_discovery_sdram.o
 .bss.dma_handle.8773
                0x00000000200002fc       0x50 ./system/src/BSP/stm32746g_discovery_sdram.o
 .bss.__malloc_sbrk_start
                0x000000002000034c        0x4 /Users/cnoviello/STM32Toolchain/gcc-arm-none-eabi-4_9-2015q2/bin/../lib/gcc/arm-none-eabi/4.9.3/../../../../arm-none-eabi/lib/cortex-m7/libg_nano.a(lib_a-nano-mallocr.o)
                0x000000002000034c                __malloc_sbrk_start
 .bss.__malloc_free_list
                0x0000000020000350        0x4 /Users/cnoviello/STM32Toolchain/gcc-arm-none-eabi-4_9-2015q2/bin/../lib/gcc/arm-none-eabi/4.9.3/../../../../arm-none-eabi/lib/cortex-m7/libg_nano.a(lib_a-nano-mallocr.o)
                0x0000000020000350                __malloc_free_list
 *(COMMON)
 COMMON         0x0000000020000354        0x4 ./system/src/newlib/_syscalls.o
                0x0000000020000354                errno
 *(.bss_end .bss_end.*)
 .bss_end       0x0000000020000358        0x4 ./system/src/newlib/_startup.o
                0x000000002000035c                . = ALIGN (0x4)
                0x000000002000035c                __bss_end__ = .
                0x000000002000035c                _ebss = .

.noinit         0x000000002000035c        0x0
                0x000000002000035c                . = ALIGN (0x4)
                0x000000002000035c                _noinit = .
 *(.noinit .noinit.*)
                0x000000002000035c                . = ALIGN (0x4)
                0x000000002000035c                _end_noinit = .
                0x000000002000035c                PROVIDE (end, _end_noinit)
                0x000000002000035c                PROVIDE (_end, _end_noinit)
                0x000000002000035c                PROVIDE (__end, _end_noinit)
                0x000000002000035c                PROVIDE (__end__, _end_noinit)

._check_stack   0x000000002000035c      0x100 load address 0x00000000080061e4
                0x000000002000035c                . = ALIGN (0x4)
                0x000000002000045c                . = (. + _Minimum_Stack_Size)
 *fill*         0x000000002000035c      0x100 
                0x000000002000045c                . = ALIGN (0x4)

.bss_CCMRAM
 *(.bss.CCMRAM .bss.CCMRAM.*)

.b1text
 *(.b1text)
 *(.b1rodata)
 *(.b1rodata.*)

.eb0text
 *(.eb0text)
 *(.eb0rodata)
 *(.eb0rodata.*)

.eb1text
 *(.eb1text)
 *(.eb1rodata)
 *(.eb1rodata.*)

.eb2text
 *(.eb2text)
 *(.eb2rodata)
 *(.eb2rodata.*)

.eb3text
 *(.eb3text)
 *(.eb3rodata)
 *(.eb3rodata.*)

.stab
 *(.stab)

.stabstr
 *(.stabstr)

.stab.excl
 *(.stab.excl)

.stab.exclstr
 *(.stab.exclstr)

.stab.index
 *(.stab.index)

.stab.indexstr
 *(.stab.indexstr)

.comment        0x0000000000000000       0x70
 *(.comment)
 .comment       0x0000000000000000       0x70 ./system/src/stm32f7xx/stm32f7xx_hal.o
                                         0x71 (size before relaxing)
 .comment       0x0000000000000000       0x71 ./system/src/stm32f7xx/stm32f7xx_hal_cortex.o
 .comment       0x0000000000000000       0x71 ./system/src/stm32f7xx/stm32f7xx_hal_dma.o
 .comment       0x0000000000000000       0x71 ./system/src/stm32f7xx/stm32f7xx_hal_dma2d.o
 .comment       0x0000000000000000       0x71 ./system/src/stm32f7xx/stm32f7xx_hal_gpio.o
 .comment       0x0000000000000000       0x71 ./system/src/stm32f7xx/stm32f7xx_hal_ltdc.o
 .comment       0x0000000000000000       0x71 ./system/src/stm32f7xx/stm32f7xx_hal_msp_template.o
 .comment       0x0000000000000000       0x71 ./system/src/stm32f7xx/stm32f7xx_hal_pwr_ex.o
 .comment       0x0000000000000000       0x71 ./system/src/stm32f7xx/stm32f7xx_hal_rcc.o
 .comment       0x0000000000000000       0x71 ./system/src/stm32f7xx/stm32f7xx_hal_rcc_ex.o
 .comment       0x0000000000000000       0x71 ./system/src/stm32f7xx/stm32f7xx_hal_sdram.o
 .comment       0x0000000000000000       0x71 ./system/src/stm32f7xx/stm32f7xx_ll_fmc.o
 .comment       0x0000000000000000       0x71 ./system/src/newlib/_exit.o
 .comment       0x0000000000000000       0x71 ./system/src/newlib/_sbrk.o
 .comment       0x0000000000000000       0x71 ./system/src/newlib/_startup.o
 .comment       0x0000000000000000       0x71 ./system/src/newlib/_syscalls.o
 .comment       0x0000000000000000       0x71 ./system/src/diag/Trace.o
 .comment       0x0000000000000000       0x71 ./system/src/diag/trace_impl.o
 .comment       0x0000000000000000       0x71 ./system/src/cortexm/_initialize_hardware.o
 .comment       0x0000000000000000       0x71 ./system/src/cortexm/exception_handlers.o
 .comment       0x0000000000000000       0x71 ./system/src/cmsis/system_stm32f7xx.o
 .comment       0x0000000000000000       0x71 ./system/src/BSP/stm32746g_discovery_lcd.o
 .comment       0x0000000000000000       0x71 ./system/src/BSP/stm32746g_discovery_sdram.o
 .comment       0x0000000000000000       0x71 ./src/main.o
 .comment       0x0000000000000000       0x71 ./src/stm32f7xx_it.o

.ARM.attributes
                0x0000000000000000       0x31
 .ARM.attributes
                0x0000000000000000       0x33 ./system/src/stm32f7xx/stm32f7xx_hal.o
 .ARM.attributes
                0x0000000000000033       0x33 ./system/src/stm32f7xx/stm32f7xx_hal_cortex.o
 .ARM.attributes
                0x0000000000000066       0x33 ./system/src/stm32f7xx/stm32f7xx_hal_dma.o
 .ARM.attributes
                0x0000000000000099       0x33 ./system/src/stm32f7xx/stm32f7xx_hal_dma2d.o
 .ARM.attributes
                0x00000000000000cc       0x33 ./system/src/stm32f7xx/stm32f7xx_hal_gpio.o
 .ARM.attributes
                0x00000000000000ff       0x33 ./system/src/stm32f7xx/stm32f7xx_hal_ltdc.o
 .ARM.attributes
                0x0000000000000132       0x33 ./system/src/stm32f7xx/stm32f7xx_hal_msp_template.o
 .ARM.attributes
                0x0000000000000165       0x33 ./system/src/stm32f7xx/stm32f7xx_hal_pwr_ex.o
 .ARM.attributes
                0x0000000000000198       0x33 ./system/src/stm32f7xx/stm32f7xx_hal_rcc.o
 .ARM.attributes
                0x00000000000001cb       0x33 ./system/src/stm32f7xx/stm32f7xx_hal_rcc_ex.o
 .ARM.attributes
                0x00000000000001fe       0x33 ./system/src/stm32f7xx/stm32f7xx_hal_sdram.o
 .ARM.attributes
                0x0000000000000231       0x33 ./system/src/stm32f7xx/stm32f7xx_ll_fmc.o
 .ARM.attributes
                0x0000000000000264       0x33 ./system/src/newlib/_exit.o
 .ARM.attributes
                0x0000000000000297       0x33 ./system/src/newlib/_sbrk.o
 .ARM.attributes
                0x00000000000002ca       0x33 ./system/src/newlib/_startup.o
 .ARM.attributes
                0x00000000000002fd       0x33 ./system/src/newlib/_syscalls.o
 .ARM.attributes
                0x0000000000000330       0x33 ./system/src/diag/Trace.o
 .ARM.attributes
                0x0000000000000363       0x33 ./system/src/diag/trace_impl.o
 .ARM.attributes
                0x0000000000000396       0x33 ./system/src/cortexm/_initialize_hardware.o
 .ARM.attributes
                0x00000000000003c9       0x33 ./system/src/cortexm/exception_handlers.o
 .ARM.attributes
                0x00000000000003fc       0x21 ./system/src/cmsis/startup_stm32f746xx.o
 .ARM.attributes
                0x000000000000041d       0x33 ./system/src/cmsis/system_stm32f7xx.o
 .ARM.attributes
                0x0000000000000450       0x33 ./system/src/BSP/stm32746g_discovery_lcd.o
 .ARM.attributes
                0x0000000000000483       0x33 ./system/src/BSP/stm32746g_discovery_sdram.o
 .ARM.attributes
                0x00000000000004b6       0x33 ./src/main.o
 .ARM.attributes
                0x00000000000004e9       0x33 ./src/stm32f7xx_it.o
 .ARM.attributes
                0x000000000000051c       0x33 /Users/cnoviello/STM32Toolchain/gcc-arm-none-eabi-4_9-2015q2/bin/../lib/gcc/arm-none-eabi/4.9.3/../../../../arm-none-eabi/lib/cortex-m7/libg_nano.a(lib_a-errno.o)
 .ARM.attributes
                0x000000000000054f       0x33 /Users/cnoviello/STM32Toolchain/gcc-arm-none-eabi-4_9-2015q2/bin/../lib/gcc/arm-none-eabi/4.9.3/../../../../arm-none-eabi/lib/cortex-m7/libg_nano.a(lib_a-impure.o)
 .ARM.attributes
                0x0000000000000582       0x33 /Users/cnoviello/STM32Toolchain/gcc-arm-none-eabi-4_9-2015q2/bin/../lib/gcc/arm-none-eabi/4.9.3/../../../../arm-none-eabi/lib/cortex-m7/libg_nano.a(lib_a-memcpy.o)
 .ARM.attributes
                0x00000000000005b5       0x33 /Users/cnoviello/STM32Toolchain/gcc-arm-none-eabi-4_9-2015q2/bin/../lib/gcc/arm-none-eabi/4.9.3/../../../../arm-none-eabi/lib/cortex-m7/libg_nano.a(lib_a-vsnprintf.o)
 .ARM.attributes
                0x00000000000005e8       0x33 /Users/cnoviello/STM32Toolchain/gcc-arm-none-eabi-4_9-2015q2/bin/../lib/gcc/arm-none-eabi/4.9.3/../../../../arm-none-eabi/lib/cortex-m7/libg_nano.a(lib_a-nano-svfprintf.o)
 .ARM.attributes
                0x000000000000061b       0x33 /Users/cnoviello/STM32Toolchain/gcc-arm-none-eabi-4_9-2015q2/bin/../lib/gcc/arm-none-eabi/4.9.3/../../../../arm-none-eabi/lib/cortex-m7/libg_nano.a(lib_a-nano-vfprintf_i.o)
 .ARM.attributes
                0x000000000000064e       0x33 /Users/cnoviello/STM32Toolchain/gcc-arm-none-eabi-4_9-2015q2/bin/../lib/gcc/arm-none-eabi/4.9.3/../../../../arm-none-eabi/lib/cortex-m7/libg_nano.a(lib_a-memchr.o)
 .ARM.attributes
                0x0000000000000681       0x33 /Users/cnoviello/STM32Toolchain/gcc-arm-none-eabi-4_9-2015q2/bin/../lib/gcc/arm-none-eabi/4.9.3/../../../../arm-none-eabi/lib/cortex-m7/libg_nano.a(lib_a-memmove.o)
 .ARM.attributes
                0x00000000000006b4       0x33 /Users/cnoviello/STM32Toolchain/gcc-arm-none-eabi-4_9-2015q2/bin/../lib/gcc/arm-none-eabi/4.9.3/../../../../arm-none-eabi/lib/cortex-m7/libg_nano.a(lib_a-nano-freer.o)
 .ARM.attributes
                0x00000000000006e7       0x33 /Users/cnoviello/STM32Toolchain/gcc-arm-none-eabi-4_9-2015q2/bin/../lib/gcc/arm-none-eabi/4.9.3/../../../../arm-none-eabi/lib/cortex-m7/libg_nano.a(lib_a-nano-mallocr.o)
 .ARM.attributes
                0x000000000000071a       0x33 /Users/cnoviello/STM32Toolchain/gcc-arm-none-eabi-4_9-2015q2/bin/../lib/gcc/arm-none-eabi/4.9.3/../../../../arm-none-eabi/lib/cortex-m7/libg_nano.a(lib_a-nano-reallocr.o)
 .ARM.attributes
                0x000000000000074d       0x33 /Users/cnoviello/STM32Toolchain/gcc-arm-none-eabi-4_9-2015q2/bin/../lib/gcc/arm-none-eabi/4.9.3/../../../../arm-none-eabi/lib/cortex-m7/libg_nano.a(lib_a-sbrkr.o)
 .ARM.attributes
                0x0000000000000780       0x33 /Users/cnoviello/STM32Toolchain/gcc-arm-none-eabi-4_9-2015q2/bin/../lib/gcc/arm-none-eabi/4.9.3/../../../../arm-none-eabi/lib/cortex-m7/libg_nano.a(lib_a-nano-msizer.o)

.debug
 *(.debug)

.line
 *(.line)

.debug_srcinfo
 *(.debug_srcinfo)

.debug_sfnames
 *(.debug_sfnames)

.debug_aranges  0x0000000000000000      0xb50
 *(.debug_aranges)
 .debug_aranges
                0x0000000000000000       0xd0 ./system/src/stm32f7xx/stm32f7xx_hal.o
 .debug_aranges
                0x00000000000000d0       0x98 ./system/src/stm32f7xx/stm32f7xx_hal_cortex.o
 .debug_aranges
                0x0000000000000168       0x68 ./system/src/stm32f7xx/stm32f7xx_hal_dma.o
 .debug_aranges
                0x00000000000001d0       0xc0 ./system/src/stm32f7xx/stm32f7xx_hal_dma2d.o
 .debug_aranges
                0x0000000000000290       0x58 ./system/src/stm32f7xx/stm32f7xx_hal_gpio.o
 .debug_aranges
                0x00000000000002e8       0xe0 ./system/src/stm32f7xx/stm32f7xx_hal_ltdc.o
 .debug_aranges
                0x00000000000003c8       0x38 ./system/src/stm32f7xx/stm32f7xx_hal_msp_template.o
 .debug_aranges
                0x0000000000000400       0x80 ./system/src/stm32f7xx/stm32f7xx_hal_pwr_ex.o
 .debug_aranges
                0x0000000000000480       0x88 ./system/src/stm32f7xx/stm32f7xx_hal_rcc.o
 .debug_aranges
                0x0000000000000508       0x30 ./system/src/stm32f7xx/stm32f7xx_hal_rcc_ex.o
 .debug_aranges
                0x0000000000000538       0xd0 ./system/src/stm32f7xx/stm32f7xx_hal_sdram.o
 .debug_aranges
                0x0000000000000608       0xc8 ./system/src/stm32f7xx/stm32f7xx_ll_fmc.o
 .debug_aranges
                0x00000000000006d0       0x28 ./system/src/newlib/_exit.o
 .debug_aranges
                0x00000000000006f8       0x20 ./system/src/newlib/_sbrk.o
 .debug_aranges
                0x0000000000000718       0x40 ./system/src/newlib/_startup.o
 .debug_aranges
                0x0000000000000758       0x30 ./system/src/newlib/_syscalls.o
 .debug_aranges
                0x0000000000000788       0x38 ./system/src/diag/Trace.o
 .debug_aranges
                0x00000000000007c0       0x28 ./system/src/diag/trace_impl.o
 .debug_aranges
                0x00000000000007e8       0x28 ./system/src/cortexm/_initialize_hardware.o
 .debug_aranges
                0x0000000000000810       0x88 ./system/src/cortexm/exception_handlers.o
 .debug_aranges
                0x0000000000000898       0x28 ./system/src/cmsis/startup_stm32f746xx.o
 .debug_aranges
                0x00000000000008c0       0x28 ./system/src/cmsis/system_stm32f7xx.o
 .debug_aranges
                0x00000000000008e8      0x1a0 ./system/src/BSP/stm32746g_discovery_lcd.o
 .debug_aranges
                0x0000000000000a88       0x70 ./system/src/BSP/stm32746g_discovery_sdram.o
 .debug_aranges
                0x0000000000000af8       0x38 ./src/main.o
 .debug_aranges
                0x0000000000000b30       0x20 ./src/stm32f7xx_it.o

.debug_pubnames
 *(.debug_pubnames)

.debug_info     0x0000000000000000     0xebba
 *(.debug_info .gnu.linkonce.wi.*)
 .debug_info    0x0000000000000000      0x93e ./system/src/stm32f7xx/stm32f7xx_hal.o
 .debug_info    0x000000000000093e     0x10c3 ./system/src/stm32f7xx/stm32f7xx_hal_cortex.o
 .debug_info    0x0000000000001a01      0x736 ./system/src/stm32f7xx/stm32f7xx_hal_dma.o
 .debug_info    0x0000000000002137      0xba9 ./system/src/stm32f7xx/stm32f7xx_hal_dma2d.o
 .debug_info    0x0000000000002ce0      0x719 ./system/src/stm32f7xx/stm32f7xx_hal_gpio.o
 .debug_info    0x00000000000033f9      0xd08 ./system/src/stm32f7xx/stm32f7xx_hal_ltdc.o
 .debug_info    0x0000000000004101       0xe5 ./system/src/stm32f7xx/stm32f7xx_hal_msp_template.o
 .debug_info    0x00000000000041e6      0x9c1 ./system/src/stm32f7xx/stm32f7xx_hal_pwr_ex.o
 .debug_info    0x0000000000004ba7      0xd50 ./system/src/stm32f7xx/stm32f7xx_hal_rcc.o
 .debug_info    0x00000000000058f7      0xb3a ./system/src/stm32f7xx/stm32f7xx_hal_rcc_ex.o
 .debug_info    0x0000000000006431      0xe14 ./system/src/stm32f7xx/stm32f7xx_hal_sdram.o
 .debug_info    0x0000000000007245      0xc80 ./system/src/stm32f7xx/stm32f7xx_ll_fmc.o
 .debug_info    0x0000000000007ec5      0x100 ./system/src/newlib/_exit.o
 .debug_info    0x0000000000007fc5      0x125 ./system/src/newlib/_sbrk.o
 .debug_info    0x00000000000080ea      0x474 ./system/src/newlib/_startup.o
 .debug_info    0x000000000000855e      0x1a9 ./system/src/newlib/_syscalls.o
 .debug_info    0x0000000000008707      0x32b ./system/src/diag/Trace.o
 .debug_info    0x0000000000008a32      0x114 ./system/src/diag/trace_impl.o
 .debug_info    0x0000000000008b46       0xdf ./system/src/cortexm/_initialize_hardware.o
 .debug_info    0x0000000000008c25      0x98d ./system/src/cortexm/exception_handlers.o
 .debug_info    0x00000000000095b2       0x93 ./system/src/cmsis/startup_stm32f746xx.o
 .debug_info    0x0000000000009645      0x67a ./system/src/cmsis/system_stm32f7xx.o
 .debug_info    0x0000000000009cbf     0x2e7f ./system/src/BSP/stm32746g_discovery_lcd.o
 .debug_info    0x000000000000cb3e     0x1363 ./system/src/BSP/stm32746g_discovery_sdram.o
 .debug_info    0x000000000000dea1      0xc41 ./src/main.o
 .debug_info    0x000000000000eae2       0xd8 ./src/stm32f7xx_it.o

.debug_abbrev   0x0000000000000000     0x2aab
 *(.debug_abbrev)
 .debug_abbrev  0x0000000000000000      0x206 ./system/src/stm32f7xx/stm32f7xx_hal.o
 .debug_abbrev  0x0000000000000206      0x2de ./system/src/stm32f7xx/stm32f7xx_hal_cortex.o
 .debug_abbrev  0x00000000000004e4      0x201 ./system/src/stm32f7xx/stm32f7xx_hal_dma.o
 .debug_abbrev  0x00000000000006e5      0x21b ./system/src/stm32f7xx/stm32f7xx_hal_dma2d.o
 .debug_abbrev  0x0000000000000900      0x1cb ./system/src/stm32f7xx/stm32f7xx_hal_gpio.o
 .debug_abbrev  0x0000000000000acb      0x1f5 ./system/src/stm32f7xx/stm32f7xx_hal_ltdc.o
 .debug_abbrev  0x0000000000000cc0       0x6a ./system/src/stm32f7xx/stm32f7xx_hal_msp_template.o
 .debug_abbrev  0x0000000000000d2a      0x1cb ./system/src/stm32f7xx/stm32f7xx_hal_pwr_ex.o
 .debug_abbrev  0x0000000000000ef5      0x2f3 ./system/src/stm32f7xx/stm32f7xx_hal_rcc.o
 .debug_abbrev  0x00000000000011e8      0x238 ./system/src/stm32f7xx/stm32f7xx_hal_rcc_ex.o
 .debug_abbrev  0x0000000000001420      0x229 ./system/src/stm32f7xx/stm32f7xx_hal_sdram.o
 .debug_abbrev  0x0000000000001649      0x183 ./system/src/stm32f7xx/stm32f7xx_ll_fmc.o
 .debug_abbrev  0x00000000000017cc       0xa4 ./system/src/newlib/_exit.o
 .debug_abbrev  0x0000000000001870       0xbb ./system/src/newlib/_sbrk.o
 .debug_abbrev  0x000000000000192b      0x1e9 ./system/src/newlib/_startup.o
 .debug_abbrev  0x0000000000001b14       0xe7 ./system/src/newlib/_syscalls.o
 .debug_abbrev  0x0000000000001bfb      0x178 ./system/src/diag/Trace.o
 .debug_abbrev  0x0000000000001d73       0xb4 ./system/src/diag/trace_impl.o
 .debug_abbrev  0x0000000000001e27       0x88 ./system/src/cortexm/_initialize_hardware.o
 .debug_abbrev  0x0000000000001eaf      0x1e5 ./system/src/cortexm/exception_handlers.o
 .debug_abbrev  0x0000000000002094       0x12 ./system/src/cmsis/startup_stm32f746xx.o
 .debug_abbrev  0x00000000000020a6      0x120 ./system/src/cmsis/system_stm32f7xx.o
 .debug_abbrev  0x00000000000021c6      0x344 ./system/src/BSP/stm32746g_discovery_lcd.o
 .debug_abbrev  0x000000000000250a      0x260 ./system/src/BSP/stm32746g_discovery_sdram.o
 .debug_abbrev  0x000000000000276a      0x2a8 ./src/main.o
 .debug_abbrev  0x0000000000002a12       0x99 ./src/stm32f7xx_it.o

.debug_line     0x0000000000000000     0xcc84
 *(.debug_line)
 .debug_line    0x0000000000000000      0x829 ./system/src/stm32f7xx/stm32f7xx_hal.o
 .debug_line    0x0000000000000829      0x856 ./system/src/stm32f7xx/stm32f7xx_hal_cortex.o
 .debug_line    0x000000000000107f     0x2adc ./system/src/stm32f7xx/stm32f7xx_hal_dma.o
 .debug_line    0x0000000000003b5b      0x9d9 ./system/src/stm32f7xx/stm32f7xx_hal_dma2d.o
 .debug_line    0x0000000000004534      0x80f ./system/src/stm32f7xx/stm32f7xx_hal_gpio.o
 .debug_line    0x0000000000004d43      0xb93 ./system/src/stm32f7xx/stm32f7xx_hal_ltdc.o
 .debug_line    0x00000000000058d6      0x6d7 ./system/src/stm32f7xx/stm32f7xx_hal_msp_template.o
 .debug_line    0x0000000000005fad      0x7e9 ./system/src/stm32f7xx/stm32f7xx_hal_pwr_ex.o
 .debug_line    0x0000000000006796      0x9e0 ./system/src/stm32f7xx/stm32f7xx_hal_rcc.o
 .debug_line    0x0000000000007176      0x8fd ./system/src/stm32f7xx/stm32f7xx_hal_rcc_ex.o
 .debug_line    0x0000000000007a73      0x992 ./system/src/stm32f7xx/stm32f7xx_hal_sdram.o
 .debug_line    0x0000000000008405      0x92e ./system/src/stm32f7xx/stm32f7xx_ll_fmc.o
 .debug_line    0x0000000000008d33      0x2de ./system/src/newlib/_exit.o
 .debug_line    0x0000000000009011      0x281 ./system/src/newlib/_sbrk.o
 .debug_line    0x0000000000009292      0x33f ./system/src/newlib/_startup.o
 .debug_line    0x00000000000095d1      0x3be ./system/src/newlib/_syscalls.o
 .debug_line    0x000000000000998f      0x339 ./system/src/diag/Trace.o
 .debug_line    0x0000000000009cc8      0x36d ./system/src/diag/trace_impl.o
 .debug_line    0x000000000000a035      0x18d ./system/src/cortexm/_initialize_hardware.o
 .debug_line    0x000000000000a1c2      0x468 ./system/src/cortexm/exception_handlers.o
 .debug_line    0x000000000000a62a       0x88 ./system/src/cmsis/startup_stm32f746xx.o
 .debug_line    0x000000000000a6b2      0x18e ./system/src/cmsis/system_stm32f7xx.o
 .debug_line    0x000000000000a840      0xd82 ./system/src/BSP/stm32746g_discovery_lcd.o
 .debug_line    0x000000000000b5c2      0x7ef ./system/src/BSP/stm32746g_discovery_sdram.o
 .debug_line    0x000000000000bdb1      0x838 ./src/main.o
 .debug_line    0x000000000000c5e9      0x69b ./src/stm32f7xx_it.o

.debug_frame    0x0000000000000000     0x1ec8
 *(.debug_frame)
 .debug_frame   0x0000000000000000      0x1a8 ./system/src/stm32f7xx/stm32f7xx_hal.o
 .debug_frame   0x00000000000001a8      0x138 ./system/src/stm32f7xx/stm32f7xx_hal_cortex.o
 .debug_frame   0x00000000000002e0      0x110 ./system/src/stm32f7xx/stm32f7xx_hal_dma.o
 .debug_frame   0x00000000000003f0      0x220 ./system/src/stm32f7xx/stm32f7xx_hal_dma2d.o
 .debug_frame   0x0000000000000610       0xc8 ./system/src/stm32f7xx/stm32f7xx_hal_gpio.o
 .debug_frame   0x00000000000006d8      0x284 ./system/src/stm32f7xx/stm32f7xx_hal_ltdc.o
 .debug_frame   0x000000000000095c       0x50 ./system/src/stm32f7xx/stm32f7xx_hal_msp_template.o
 .debug_frame   0x00000000000009ac      0x134 ./system/src/stm32f7xx/stm32f7xx_hal_pwr_ex.o
 .debug_frame   0x0000000000000ae0      0x144 ./system/src/stm32f7xx/stm32f7xx_hal_rcc.o
 .debug_frame   0x0000000000000c24       0x6c ./system/src/stm32f7xx/stm32f7xx_hal_rcc_ex.o
 .debug_frame   0x0000000000000c90      0x24c ./system/src/stm32f7xx/stm32f7xx_hal_sdram.o
 .debug_frame   0x0000000000000edc      0x200 ./system/src/stm32f7xx/stm32f7xx_ll_fmc.o
 .debug_frame   0x00000000000010dc       0x38 ./system/src/newlib/_exit.o
 .debug_frame   0x0000000000001114       0x28 ./system/src/newlib/_sbrk.o
 .debug_frame   0x000000000000113c       0x7c ./system/src/newlib/_startup.o
 .debug_frame   0x00000000000011b8       0x50 ./system/src/newlib/_syscalls.o
 .debug_frame   0x0000000000001208       0x94 ./system/src/diag/Trace.o
 .debug_frame   0x000000000000129c       0x30 ./system/src/diag/trace_impl.o
 .debug_frame   0x00000000000012cc       0x40 ./system/src/cortexm/_initialize_hardware.o
 .debug_frame   0x000000000000130c      0x144 ./system/src/cortexm/exception_handlers.o
 .debug_frame   0x0000000000001450       0x30 ./system/src/cmsis/system_stm32f7xx.o
 .debug_frame   0x0000000000001480      0x5ac ./system/src/BSP/stm32746g_discovery_lcd.o
 .debug_frame   0x0000000000001a2c      0x148 ./system/src/BSP/stm32746g_discovery_sdram.o
 .debug_frame   0x0000000000001b74       0x80 ./src/main.o
 .debug_frame   0x0000000000001bf4       0x28 ./src/stm32f7xx_it.o
 .debug_frame   0x0000000000001c1c       0x20 /Users/cnoviello/STM32Toolchain/gcc-arm-none-eabi-4_9-2015q2/bin/../lib/gcc/arm-none-eabi/4.9.3/../../../../arm-none-eabi/lib/cortex-m7/libg_nano.a(lib_a-errno.o)
 .debug_frame   0x0000000000001c3c       0x28 /Users/cnoviello/STM32Toolchain/gcc-arm-none-eabi-4_9-2015q2/bin/../lib/gcc/arm-none-eabi/4.9.3/../../../../arm-none-eabi/lib/cortex-m7/libg_nano.a(lib_a-memcpy.o)
 .debug_frame   0x0000000000001c64       0x50 /Users/cnoviello/STM32Toolchain/gcc-arm-none-eabi-4_9-2015q2/bin/../lib/gcc/arm-none-eabi/4.9.3/../../../../arm-none-eabi/lib/cortex-m7/libg_nano.a(lib_a-vsnprintf.o)
 .debug_frame   0x0000000000001cb4       0x8c /Users/cnoviello/STM32Toolchain/gcc-arm-none-eabi-4_9-2015q2/bin/../lib/gcc/arm-none-eabi/4.9.3/../../../../arm-none-eabi/lib/cortex-m7/libg_nano.a(lib_a-nano-svfprintf.o)
 .debug_frame   0x0000000000001d40       0x58 /Users/cnoviello/STM32Toolchain/gcc-arm-none-eabi-4_9-2015q2/bin/../lib/gcc/arm-none-eabi/4.9.3/../../../../arm-none-eabi/lib/cortex-m7/libg_nano.a(lib_a-nano-vfprintf_i.o)
 .debug_frame   0x0000000000001d98       0x28 /Users/cnoviello/STM32Toolchain/gcc-arm-none-eabi-4_9-2015q2/bin/../lib/gcc/arm-none-eabi/4.9.3/../../../../arm-none-eabi/lib/cortex-m7/libg_nano.a(lib_a-memchr.o)
 .debug_frame   0x0000000000001dc0       0x28 /Users/cnoviello/STM32Toolchain/gcc-arm-none-eabi-4_9-2015q2/bin/../lib/gcc/arm-none-eabi/4.9.3/../../../../arm-none-eabi/lib/cortex-m7/libg_nano.a(lib_a-memmove.o)
 .debug_frame   0x0000000000001de8       0x2c /Users/cnoviello/STM32Toolchain/gcc-arm-none-eabi-4_9-2015q2/bin/../lib/gcc/arm-none-eabi/4.9.3/../../../../arm-none-eabi/lib/cortex-m7/libg_nano.a(lib_a-nano-freer.o)
 .debug_frame   0x0000000000001e14       0x2c /Users/cnoviello/STM32Toolchain/gcc-arm-none-eabi-4_9-2015q2/bin/../lib/gcc/arm-none-eabi/4.9.3/../../../../arm-none-eabi/lib/cortex-m7/libg_nano.a(lib_a-nano-mallocr.o)
 .debug_frame   0x0000000000001e40       0x3c /Users/cnoviello/STM32Toolchain/gcc-arm-none-eabi-4_9-2015q2/bin/../lib/gcc/arm-none-eabi/4.9.3/../../../../arm-none-eabi/lib/cortex-m7/libg_nano.a(lib_a-nano-reallocr.o)
 .debug_frame   0x0000000000001e7c       0x2c /Users/cnoviello/STM32Toolchain/gcc-arm-none-eabi-4_9-2015q2/bin/../lib/gcc/arm-none-eabi/4.9.3/../../../../arm-none-eabi/lib/cortex-m7/libg_nano.a(lib_a-sbrkr.o)
 .debug_frame   0x0000000000001ea8       0x20 /Users/cnoviello/STM32Toolchain/gcc-arm-none-eabi-4_9-2015q2/bin/../lib/gcc/arm-none-eabi/4.9.3/../../../../arm-none-eabi/lib/cortex-m7/libg_nano.a(lib_a-nano-msizer.o)

.debug_str      0x0000000000000000    0xa3fad
 *(.debug_str)
 .debug_str     0x0000000000000000    0x9c5e6 ./system/src/stm32f7xx/stm32f7xx_hal.o
                                      0x9ca5e (size before relaxing)
 .debug_str     0x000000000009c5e6      0x450 ./system/src/stm32f7xx/stm32f7xx_hal_cortex.o
                                      0x9cad6 (size before relaxing)
 .debug_str     0x000000000009ca36      0x3cc ./system/src/stm32f7xx/stm32f7xx_hal_dma.o
                                      0x9c38b (size before relaxing)
 .debug_str     0x000000000009ce02      0x429 ./system/src/stm32f7xx/stm32f7xx_hal_dma2d.o
                                      0x9c471 (size before relaxing)
 .debug_str     0x000000000009d22b      0x2b6 ./system/src/stm32f7xx/stm32f7xx_hal_gpio.o
                                      0x9c381 (size before relaxing)
 .debug_str     0x000000000009d4e1      0x4be ./system/src/stm32f7xx/stm32f7xx_hal_ltdc.o
                                      0x9c52a (size before relaxing)
 .debug_str     0x000000000009d99f       0x57 ./system/src/stm32f7xx/stm32f7xx_hal_msp_template.o
                                      0x9bf75 (size before relaxing)
 .debug_str     0x000000000009d9f6      0x1e7 ./system/src/stm32f7xx/stm32f7xx_hal_pwr_ex.o
                                      0x9c456 (size before relaxing)
 .debug_str     0x000000000009dbdd      0x387 ./system/src/stm32f7xx/stm32f7xx_hal_rcc.o
                                      0x9c4f2 (size before relaxing)
 .debug_str     0x000000000009df64      0x362 ./system/src/stm32f7xx/stm32f7xx_hal_rcc_ex.o
                                      0x9c43f (size before relaxing)
 .debug_str     0x000000000009e2c6      0x5ac ./system/src/stm32f7xx/stm32f7xx_hal_sdram.o
                                      0x9c7f8 (size before relaxing)
 .debug_str     0x000000000009e872      0x388 ./system/src/stm32f7xx/stm32f7xx_ll_fmc.o
                                      0x9c61c (size before relaxing)
 .debug_str     0x000000000009ebfa      0xeeb ./system/src/newlib/_exit.o
                                       0x5e29 (size before relaxing)
 .debug_str     0x000000000009fae5      0x4d9 ./system/src/newlib/_sbrk.o
                                       0x459b (size before relaxing)
 .debug_str     0x000000000009ffbe      0x266 ./system/src/newlib/_startup.o
                                       0x4173 (size before relaxing)
 .debug_str     0x00000000000a0224     0x1174 ./system/src/newlib/_syscalls.o
                                       0x6595 (size before relaxing)
 .debug_str     0x00000000000a1398      0x18a ./system/src/diag/Trace.o
                                       0x674a (size before relaxing)
 .debug_str     0x00000000000a1522       0x42 ./system/src/diag/trace_impl.o
                                      0x492c5 (size before relaxing)
 .debug_str     0x00000000000a1564       0x4e ./system/src/cortexm/_initialize_hardware.o
                                      0x46750 (size before relaxing)
 .debug_str     0x00000000000a15b2      0x1e5 ./system/src/cortexm/exception_handlers.o
                                      0x4a1f1 (size before relaxing)
 .debug_str     0x00000000000a1797       0x46 ./system/src/cmsis/system_stm32f7xx.o
                                      0x469e0 (size before relaxing)
 .debug_str     0x00000000000a17dd     0x258c ./system/src/BSP/stm32746g_discovery_lcd.o
                                      0x9efde (size before relaxing)
 .debug_str     0x00000000000a3d69      0x168 ./system/src/BSP/stm32746g_discovery_sdram.o
                                      0x9d2b7 (size before relaxing)
 .debug_str     0x00000000000a3ed1       0xb4 ./src/main.o
                                      0x9e455 (size before relaxing)
 .debug_str     0x00000000000a3f85       0x28 ./src/stm32f7xx_it.o
                                      0x9bf5f (size before relaxing)

.debug_loc      0x0000000000000000     0x7614
 *(.debug_loc)
 .debug_loc     0x0000000000000000       0x6a ./system/src/stm32f7xx/stm32f7xx_hal.o
 .debug_loc     0x000000000000006a      0x4cd ./system/src/stm32f7xx/stm32f7xx_hal_cortex.o
 .debug_loc     0x0000000000000537      0x48c ./system/src/stm32f7xx/stm32f7xx_hal_dma.o
 .debug_loc     0x00000000000009c3      0xcfa ./system/src/stm32f7xx/stm32f7xx_hal_dma2d.o
 .debug_loc     0x00000000000016bd      0x368 ./system/src/stm32f7xx/stm32f7xx_hal_gpio.o
 .debug_loc     0x0000000000001a25      0xadb ./system/src/stm32f7xx/stm32f7xx_hal_ltdc.o
 .debug_loc     0x0000000000002500      0x262 ./system/src/stm32f7xx/stm32f7xx_hal_pwr_ex.o
 .debug_loc     0x0000000000002762      0x792 ./system/src/stm32f7xx/stm32f7xx_hal_rcc.o
 .debug_loc     0x0000000000002ef4      0x6f9 ./system/src/stm32f7xx/stm32f7xx_hal_rcc_ex.o
 .debug_loc     0x00000000000035ed      0xc1c ./system/src/stm32f7xx/stm32f7xx_hal_sdram.o
 .debug_loc     0x0000000000004209      0x87d ./system/src/stm32f7xx/stm32f7xx_ll_fmc.o
 .debug_loc     0x0000000000004a86       0x82 ./system/src/newlib/_sbrk.o
 .debug_loc     0x0000000000004b08      0x265 ./system/src/newlib/_startup.o
 .debug_loc     0x0000000000004d6d       0x63 ./system/src/newlib/_syscalls.o
 .debug_loc     0x0000000000004dd0       0xf7 ./system/src/diag/Trace.o
 .debug_loc     0x0000000000004ec7       0x21 ./system/src/diag/trace_impl.o
 .debug_loc     0x0000000000004ee8      0x184 ./system/src/cortexm/exception_handlers.o
 .debug_loc     0x000000000000506c      0x137 ./system/src/cmsis/system_stm32f7xx.o
 .debug_loc     0x00000000000051a3     0x1fc0 ./system/src/BSP/stm32746g_discovery_lcd.o
 .debug_loc     0x0000000000007163      0x2f7 ./system/src/BSP/stm32746g_discovery_sdram.o
 .debug_loc     0x000000000000745a      0x1ba ./src/main.o

.debug_macinfo
 *(.debug_macinfo)

.debug_weaknames
 *(.debug_weaknames)

.debug_funcnames
 *(.debug_funcnames)

.debug_typenames
 *(.debug_typenames)

.debug_varnames
 *(.debug_varnames)
OUTPUT(stm32-discof7-lcdtest.elf elf32-littlearm)

.debug_ranges   0x0000000000000000      0x9d0
 .debug_ranges  0x0000000000000000       0xc0 ./system/src/stm32f7xx/stm32f7xx_hal.o
 .debug_ranges  0x00000000000000c0       0x88 ./system/src/stm32f7xx/stm32f7xx_hal_cortex.o
 .debug_ranges  0x0000000000000148       0x58 ./system/src/stm32f7xx/stm32f7xx_hal_dma.o
 .debug_ranges  0x00000000000001a0       0xb0 ./system/src/stm32f7xx/stm32f7xx_hal_dma2d.o
 .debug_ranges  0x0000000000000250       0x48 ./system/src/stm32f7xx/stm32f7xx_hal_gpio.o
 .debug_ranges  0x0000000000000298       0xd0 ./system/src/stm32f7xx/stm32f7xx_hal_ltdc.o
 .debug_ranges  0x0000000000000368       0x28 ./system/src/stm32f7xx/stm32f7xx_hal_msp_template.o
 .debug_ranges  0x0000000000000390       0x70 ./system/src/stm32f7xx/stm32f7xx_hal_pwr_ex.o
 .debug_ranges  0x0000000000000400       0x78 ./system/src/stm32f7xx/stm32f7xx_hal_rcc.o
 .debug_ranges  0x0000000000000478       0x20 ./system/src/stm32f7xx/stm32f7xx_hal_rcc_ex.o
 .debug_ranges  0x0000000000000498       0xc0 ./system/src/stm32f7xx/stm32f7xx_hal_sdram.o
 .debug_ranges  0x0000000000000558       0xb8 ./system/src/stm32f7xx/stm32f7xx_ll_fmc.o
 .debug_ranges  0x0000000000000610       0x18 ./system/src/newlib/_exit.o
 .debug_ranges  0x0000000000000628       0x10 ./system/src/newlib/_sbrk.o
 .debug_ranges  0x0000000000000638       0x48 ./system/src/newlib/_startup.o
 .debug_ranges  0x0000000000000680       0x20 ./system/src/newlib/_syscalls.o
 .debug_ranges  0x00000000000006a0       0x28 ./system/src/diag/Trace.o
 .debug_ranges  0x00000000000006c8       0x18 ./system/src/diag/trace_impl.o
 .debug_ranges  0x00000000000006e0       0x18 ./system/src/cortexm/_initialize_hardware.o
 .debug_ranges  0x00000000000006f8       0x78 ./system/src/cortexm/exception_handlers.o
 .debug_ranges  0x0000000000000770       0x20 ./system/src/cmsis/startup_stm32f746xx.o
 .debug_ranges  0x0000000000000790       0x18 ./system/src/cmsis/system_stm32f7xx.o
 .debug_ranges  0x00000000000007a8      0x190 ./system/src/BSP/stm32746g_discovery_lcd.o
 .debug_ranges  0x0000000000000938       0x60 ./system/src/BSP/stm32746g_discovery_sdram.o
 .debug_ranges  0x0000000000000998       0x28 ./src/main.o
 .debug_ranges  0x00000000000009c0       0x10 ./src/stm32f7xx_it.o

.debug_macro    0x0000000000000000    0x1a3f2
 .debug_macro   0x0000000000000000      0x32b ./system/src/stm32f7xx/stm32f7xx_hal.o
 .debug_macro   0x000000000000032b      0x880 ./system/src/stm32f7xx/stm32f7xx_hal.o
 .debug_macro   0x0000000000000bab      0x1d1 ./system/src/stm32f7xx/stm32f7xx_hal.o
 .debug_macro   0x0000000000000d7c       0x2e ./system/src/stm32f7xx/stm32f7xx_hal.o
 .debug_macro   0x0000000000000daa       0x3b ./system/src/stm32f7xx/stm32f7xx_hal.o
 .debug_macro   0x0000000000000de5       0x3b ./system/src/stm32f7xx/stm32f7xx_hal.o
 .debug_macro   0x0000000000000e20      0x34e ./system/src/stm32f7xx/stm32f7xx_hal.o
 .debug_macro   0x000000000000116e       0x34 ./system/src/stm32f7xx/stm32f7xx_hal.o
 .debug_macro   0x00000000000011a2       0x26 ./system/src/stm32f7xx/stm32f7xx_hal.o
 .debug_macro   0x00000000000011c8     0x10a4 ./system/src/stm32f7xx/stm32f7xx_hal.o
 .debug_macro   0x000000000000226c     0xa6d7 ./system/src/stm32f7xx/stm32f7xx_hal.o
 .debug_macro   0x000000000000c943       0x43 ./system/src/stm32f7xx/stm32f7xx_hal.o
 .debug_macro   0x000000000000c986     0x2c17 ./system/src/stm32f7xx/stm32f7xx_hal.o
 .debug_macro   0x000000000000f59d       0x58 ./system/src/stm32f7xx/stm32f7xx_hal.o
 .debug_macro   0x000000000000f5f5       0x22 ./system/src/stm32f7xx/stm32f7xx_hal.o
 .debug_macro   0x000000000000f617       0x35 ./system/src/stm32f7xx/stm32f7xx_hal.o
 .debug_macro   0x000000000000f64c       0x9c ./system/src/stm32f7xx/stm32f7xx_hal.o
 .debug_macro   0x000000000000f6e8       0x16 ./system/src/stm32f7xx/stm32f7xx_hal.o
 .debug_macro   0x000000000000f6fe       0x4a ./system/src/stm32f7xx/stm32f7xx_hal.o
 .debug_macro   0x000000000000f748       0x97 ./system/src/stm32f7xx/stm32f7xx_hal.o
 .debug_macro   0x000000000000f7df      0x27a ./system/src/stm32f7xx/stm32f7xx_hal.o
 .debug_macro   0x000000000000fa59       0xf6 ./system/src/stm32f7xx/stm32f7xx_hal.o
 .debug_macro   0x000000000000fb4f       0x10 ./system/src/stm32f7xx/stm32f7xx_hal.o
 .debug_macro   0x000000000000fb5f       0x52 ./system/src/stm32f7xx/stm32f7xx_hal.o
 .debug_macro   0x000000000000fbb1       0x16 ./system/src/stm32f7xx/stm32f7xx_hal.o
 .debug_macro   0x000000000000fbc7       0x43 ./system/src/stm32f7xx/stm32f7xx_hal.o
 .debug_macro   0x000000000000fc0a      0x180 ./system/src/stm32f7xx/stm32f7xx_hal.o
 .debug_macro   0x000000000000fd8a       0x10 ./system/src/stm32f7xx/stm32f7xx_hal.o
 .debug_macro   0x000000000000fd9a       0x22 ./system/src/stm32f7xx/stm32f7xx_hal.o
 .debug_macro   0x000000000000fdbc       0x22 ./system/src/stm32f7xx/stm32f7xx_hal.o
 .debug_macro   0x000000000000fdde       0xbe ./system/src/stm32f7xx/stm32f7xx_hal.o
 .debug_macro   0x000000000000fe9c       0x16 ./system/src/stm32f7xx/stm32f7xx_hal.o
 .debug_macro   0x000000000000feb2      0x197 ./system/src/stm32f7xx/stm32f7xx_hal.o
 .debug_macro   0x0000000000010049       0x57 ./system/src/stm32f7xx/stm32f7xx_hal.o
 .debug_macro   0x00000000000100a0      0x5bb ./system/src/stm32f7xx/stm32f7xx_hal.o
 .debug_macro   0x000000000001065b     0x188a ./system/src/stm32f7xx/stm32f7xx_hal.o
 .debug_macro   0x0000000000011ee5       0xdd ./system/src/stm32f7xx/stm32f7xx_hal.o
 .debug_macro   0x0000000000011fc2      0x11e ./system/src/stm32f7xx/stm32f7xx_hal.o
 .debug_macro   0x00000000000120e0      0x1f4 ./system/src/stm32f7xx/stm32f7xx_hal.o
 .debug_macro   0x00000000000122d4       0x27 ./system/src/stm32f7xx/stm32f7xx_hal.o
 .debug_macro   0x00000000000122fb      0x272 ./system/src/stm32f7xx/stm32f7xx_hal.o
 .debug_macro   0x000000000001256d       0x5f ./system/src/stm32f7xx/stm32f7xx_hal.o
 .debug_macro   0x00000000000125cc      0x241 ./system/src/stm32f7xx/stm32f7xx_hal.o
 .debug_macro   0x000000000001280d      0x1f3 ./system/src/stm32f7xx/stm32f7xx_hal.o
 .debug_macro   0x0000000000012a00       0x6c ./system/src/stm32f7xx/stm32f7xx_hal.o
 .debug_macro   0x0000000000012a6c      0x1aa ./system/src/stm32f7xx/stm32f7xx_hal.o
 .debug_macro   0x0000000000012c16      0x111 ./system/src/stm32f7xx/stm32f7xx_hal.o
 .debug_macro   0x0000000000012d27      0x293 ./system/src/stm32f7xx/stm32f7xx_hal.o
 .debug_macro   0x0000000000012fba      0x50f ./system/src/stm32f7xx/stm32f7xx_hal.o
 .debug_macro   0x00000000000134c9      0x1d0 ./system/src/stm32f7xx/stm32f7xx_hal.o
 .debug_macro   0x0000000000013699       0x22 ./system/src/stm32f7xx/stm32f7xx_hal.o
 .debug_macro   0x00000000000136bb       0x66 ./system/src/stm32f7xx/stm32f7xx_hal.o
 .debug_macro   0x0000000000013721      0x240 ./system/src/stm32f7xx/stm32f7xx_hal.o
 .debug_macro   0x0000000000013961      0x133 ./system/src/stm32f7xx/stm32f7xx_hal.o
 .debug_macro   0x0000000000013a94      0x10c ./system/src/stm32f7xx/stm32f7xx_hal.o
 .debug_macro   0x0000000000013ba0       0x3c ./system/src/stm32f7xx/stm32f7xx_hal.o
 .debug_macro   0x0000000000013bdc      0x2db ./system/src/stm32f7xx/stm32f7xx_hal.o
 .debug_macro   0x0000000000013eb7      0x398 ./system/src/stm32f7xx/stm32f7xx_hal.o
 .debug_macro   0x000000000001424f       0xd6 ./system/src/stm32f7xx/stm32f7xx_hal.o
 .debug_macro   0x0000000000014325      0x398 ./system/src/stm32f7xx/stm32f7xx_hal.o
 .debug_macro   0x00000000000146bd      0x22b ./system/src/stm32f7xx/stm32f7xx_hal.o
 .debug_macro   0x00000000000148e8      0x677 ./system/src/stm32f7xx/stm32f7xx_hal.o
 .debug_macro   0x0000000000014f5f      0x24f ./system/src/stm32f7xx/stm32f7xx_hal.o
 .debug_macro   0x00000000000151ae      0x138 ./system/src/stm32f7xx/stm32f7xx_hal.o
 .debug_macro   0x00000000000152e6      0x4e8 ./system/src/stm32f7xx/stm32f7xx_hal.o
 .debug_macro   0x00000000000157ce       0x47 ./system/src/stm32f7xx/stm32f7xx_hal.o
 .debug_macro   0x0000000000015815      0x130 ./system/src/stm32f7xx/stm32f7xx_hal.o
 .debug_macro   0x0000000000015945      0x307 ./system/src/stm32f7xx/stm32f7xx_hal_cortex.o
 .debug_macro   0x0000000000015c4c      0x30e ./system/src/stm32f7xx/stm32f7xx_hal_dma.o
 .debug_macro   0x0000000000015f5a      0x315 ./system/src/stm32f7xx/stm32f7xx_hal_dma2d.o
 .debug_macro   0x000000000001626f      0x33f ./system/src/stm32f7xx/stm32f7xx_hal_gpio.o
 .debug_macro   0x00000000000165ae      0x307 ./system/src/stm32f7xx/stm32f7xx_hal_ltdc.o
 .debug_macro   0x00000000000168b5      0x307 ./system/src/stm32f7xx/stm32f7xx_hal_msp_template.o
 .debug_macro   0x0000000000016bbc      0x31f ./system/src/stm32f7xx/stm32f7xx_hal_pwr_ex.o
 .debug_macro   0x0000000000016edb      0x32b ./system/src/stm32f7xx/stm32f7xx_hal_rcc.o
 .debug_macro   0x0000000000017206      0x313 ./system/src/stm32f7xx/stm32f7xx_hal_rcc_ex.o
 .debug_macro   0x0000000000017519      0x307 ./system/src/stm32f7xx/stm32f7xx_hal_sdram.o
 .debug_macro   0x0000000000017820      0x307 ./system/src/stm32f7xx/stm32f7xx_ll_fmc.o
 .debug_macro   0x0000000000017b27      0x131 ./system/src/newlib/_exit.o
 .debug_macro   0x0000000000017c58      0x10e ./system/src/newlib/_exit.o
 .debug_macro   0x0000000000017d66       0x86 ./system/src/newlib/_exit.o
 .debug_macro   0x0000000000017dec       0x35 ./system/src/newlib/_exit.o
 .debug_macro   0x0000000000017e21       0xda ./system/src/newlib/_sbrk.o
 .debug_macro   0x0000000000017efb       0x19 ./system/src/newlib/_sbrk.o
 .debug_macro   0x0000000000017f14      0x16d ./system/src/newlib/_sbrk.o
 .debug_macro   0x0000000000018081       0x10 ./system/src/newlib/_sbrk.o
 .debug_macro   0x0000000000018091      0x23b ./system/src/newlib/_sbrk.o
 .debug_macro   0x00000000000182cc       0xe4 ./system/src/newlib/_startup.o
 .debug_macro   0x00000000000183b0      0x1ad ./system/src/newlib/_syscalls.o
 .debug_macro   0x000000000001855d       0x1c ./system/src/newlib/_syscalls.o
 .debug_macro   0x0000000000018579       0x10 ./system/src/newlib/_syscalls.o
 .debug_macro   0x0000000000018589       0x10 ./system/src/newlib/_syscalls.o
 .debug_macro   0x0000000000018599       0x10 ./system/src/newlib/_syscalls.o
 .debug_macro   0x00000000000185a9       0x10 ./system/src/newlib/_syscalls.o
 .debug_macro   0x00000000000185b9       0x35 ./system/src/newlib/_syscalls.o
 .debug_macro   0x00000000000185ee      0x122 ./system/src/newlib/_syscalls.o
 .debug_macro   0x0000000000018710       0x2e ./system/src/newlib/_syscalls.o
 .debug_macro   0x000000000001873e       0x82 ./system/src/newlib/_syscalls.o
 .debug_macro   0x00000000000187c0       0x2b ./system/src/newlib/_syscalls.o
 .debug_macro   0x00000000000187eb      0x118 ./system/src/newlib/_syscalls.o
 .debug_macro   0x0000000000018903      0x13e ./system/src/newlib/_syscalls.o
 .debug_macro   0x0000000000018a41       0x16 ./system/src/newlib/_syscalls.o
 .debug_macro   0x0000000000018a57      0x15e ./system/src/diag/Trace.o
 .debug_macro   0x0000000000018bb5       0x52 ./system/src/diag/Trace.o
 .debug_macro   0x0000000000018c07       0x16 ./system/src/diag/Trace.o
 .debug_macro   0x0000000000018c1d      0x166 ./system/src/diag/trace_impl.o
 .debug_macro   0x0000000000018d83       0x10 ./system/src/diag/trace_impl.o
 .debug_macro   0x0000000000018d93       0xc8 ./system/src/diag/trace_impl.o
 .debug_macro   0x0000000000018e5b       0xbe ./system/src/diag/trace_impl.o
 .debug_macro   0x0000000000018f19       0x84 ./system/src/cortexm/_initialize_hardware.o
 .debug_macro   0x0000000000018f9d      0x1b2 ./system/src/cortexm/exception_handlers.o
 .debug_macro   0x000000000001914f       0x22 ./system/src/cortexm/exception_handlers.o
 .debug_macro   0x0000000000019171       0x10 ./system/src/cortexm/exception_handlers.o
 .debug_macro   0x0000000000019181       0x8c ./system/src/cmsis/system_stm32f7xx.o
 .debug_macro   0x000000000001920d      0x36e ./system/src/BSP/stm32746g_discovery_lcd.o
 .debug_macro   0x000000000001957b       0x40 ./system/src/BSP/stm32746g_discovery_lcd.o
 .debug_macro   0x00000000000195bb       0x9a ./system/src/BSP/stm32746g_discovery_lcd.o
 .debug_macro   0x0000000000019655      0x26a ./system/src/BSP/stm32746g_discovery_lcd.o
 .debug_macro   0x00000000000198bf       0x10 ./system/src/BSP/stm32746g_discovery_lcd.o
 .debug_macro   0x00000000000198cf      0x11e ./system/src/BSP/stm32746g_discovery_lcd.o
 .debug_macro   0x00000000000199ed      0x316 ./system/src/BSP/stm32746g_discovery_sdram.o
 .debug_macro   0x0000000000019d03      0x33e ./src/main.o
 .debug_macro   0x000000000001a041       0xa0 ./src/main.o
 .debug_macro   0x000000000001a0e1      0x311 ./src/stm32f7xx_it.o
